:020000040800F2
:100000001881002045010008432C00081921000830
:10001000412C0008A9090008712F00080000000009
:10002000000000000000000000000000472C000855
:10003000B709000800000000452C0008492C000802
:100040005F0100085F0100085F0100085F01000810
:100050005F0100085F0100085F0100085F01000800
:100060005F0100085F0100085F010008AB0900089C
:100070005F0100085F0100085F0100085F010008E0
:100080005F0100085F010008530900085F010008D4
:100090005F0100085F0100085F0100085F010008C0
:1000A0005F0100085F0100085F0100085F010008B0
:1000B000FF2C00085F0100085F0100085F010008D5
:1000C0005F0100085F0100085F0100085F01000890
:1000D0005F010008152F00085F0100085F0100089C
:1000E0005F0100085F0100085F0100085F01000870
:1000F0005F0100085F0100085F0100085F01000860
:100100005F0100085F0100085F0100085F0100084F
:100110005F0100085F0100085F0100085F0100083F
:100120005F0100085F0100085F0100085F0100082F
:10013000DFF80CD000F0C0FB004800472908010898
:10014000188100200648804706480047FEE7FEE782
:10015000FEE7FEE7FEE7FEE7FEE7FEE7FEE7FEE777
:10016000AF2C00083101000840EA01039B0703D0CF
:1001700009E008C9121F08C0042AFAD203E011F8E6
:10018000013B00F8013B521EF9D27047D2B201E0A8
:1001900000F8012B491EFBD270470022F6E710B58C
:1001A00013460A4604461946FFF7F0FF204610BDE5
:1001B000421C10F8011B0029FBD1801A704710B5B2
:1001C000002200E0521C835C8C5CA34201D1002B16
:1001D000F8D1D8B2E1B2401A10BD034611F8012B94
:1001E00000F8012B002AF9D118467047F0B480EAD4
:1001F0000102D40F4200B2EB410F02D20246084680
:1002000011464A0042D0C30DDDB2C1F3C752AD1A48
:10021000202D35DAC1F3160141F4000204B1524237
:10022000C5F1200602FA06F12A411044B3EBD05F73
:1002300023D0C4B1012DA0EBC35009DCF0BC4FF0BA
:10024000004202EAC352DBB200F5000000F097B9A9
:10025000400000F1807000EBC350A0F1807040EAD4
:10026000D170490009E0490841EAC071A0EBC350D0
:1002700000F50000400800EBC350F0BC00F076B978
:100280006142012202EB4101001BF6E7F0BC70471E
:1002900081F00041AAE780F00040A7E72DE9FE4F7A
:1002A000804681EA0300C00F0C46009021F0004117
:1002B00023F00045B8EB0200A94105D24046214693
:1002C00090461C460B46024623F00040104347D0A0
:1002D000270DC7F30A00C3F30A510290401A019098
:1002E00040286BDAC3F3130040F4801B0098924659
:1002F00020B10023D2EB030A63EB0B0B01985946A4
:10030000C0F14002504600F010F906460D46504636
:100310005946019A00F018F910EB080061410024D9
:1003200087EA115284EAE7731A4340D0009A62B315
:10033000019A012A4FEA075215DC001B61EB02010A
:100340004FF0004202EA0752CDE90042001C41F59D
:10035000801132462B4600F04FF903B0BDE8F08F14
:1003600040462146F9E7001B61EB0201001C41F504
:10037000801300185B412018A2F5001747EB03011A
:1003800040EAD570B6196D4111E06D084FEA3606A6
:1003900045EAC0754FEA0752001B61EB0201001CE1
:1003A00041F5801149084FEA3000001951413246A9
:1003B0002B4603B0BDE8F04F00F00FB900980122C2
:1003C00040000023D0EB020263EBE073009821466B
:1003D0004FEAE074B8EB000061EB0401E9E783F059
:1003E00000435BE781F0004158E7002801DBC0F1E2
:1003F0000040002901DBC1F10041814201D8012008
:10040000704700207047002801DBC0F10040002940
:1004100001DBC1F10041814201D30120704700207E
:100420007047002801DBC0F10040002901DBC1F169
:100430000041814201D1012070470020704700F047
:10044000004230F000400AD0C10D01F56071C0F3E8
:10045000160042EA0151C2084007114370470020CC
:100460000146704701F0004330B421F0004150EAEA
:10047000010206D00A0DA2F56072C1F31301002A31
:1004800002DC30BC00207047440F44EAC104C100C4
:10049000E01830BC00EBC25000F068B830B50B4635
:1004A000014600202022012409E021FA02F59D42A4
:1004B00005D303FA02F5491B04FA02F52844151E78
:1004C000A2F10102F1DC30BD2DE9F05F054600200C
:1004D00092469B4688460646814640241BE02846B5
:1004E00041464746224600F0F9F953465A46C01A9B
:1004F000914110D311461846224600F016F82D1AE5
:1005000067EB01084F4622460120002100F00DF85C
:1005100017EB00094E41201EA4F10104DFDC484620
:1005200031462A464346BDE8F09F202A04DB203AA4
:1005300000FA02F1002070479140C2F1200320FA36
:1005400003F3194390407047202A06DBCB17203A6B
:1005500041FA02F043EAE07306E041FA02F3D040C8
:10056000C2F1200291400843194670470029A8BFF4
:100570007047401C490008BF20F00100704710B4CC
:10058000B0FA80FC00FA0CF050EA010404BF10BC81
:10059000704749B1CCF1200421FA04F411FA0CF1AE
:1005A00018BF012121430843A3EB0C01CB1D4FEAE7
:1005B00000614FEA102042BF002010BC704700EBE2
:1005C000C35010440029A4BF10BC7047401C490010
:1005D00008BF20F0010010BC704710B5141E73F165
:1005E000000408DA401C41F1000192185B411A43F3
:1005F00001D120F0010010BD2DE9F04D92469B463F
:1006000011B1B1FA81F202E0B0FA80F220329046E4
:10061000FFF78BFF04460F4640EA0A0041EA0B0150
:1006200053465A46084313D0114653EA010019D0E5
:10063000C8F14002504600F051F905460E465046BA
:1006400059464246FFF771FF084305D0012004E0F8
:1006500020463946BDE8F08D0020054346EAE076A5
:100660002C4337430A986305E40AA0EB08000022F4
:10067000FD0A44EA47540A3002D500200146E9E762
:10068000010510196941DDE9084500196941BDE816
:10069000F04DA2E72DE9FE4F81EA030404F0004487
:1006A00021F0004100944FF0000B23F0004350EA8A
:1006B00001045ED052EA03045BD0C3F30A54C1F3D1
:1006C0000A552C44A4F2F3340194A0FB0254C1F364
:1006D000130141F48011C3F3130343F4801301FBAE
:1006E000024400FB034E840A970A44EA815447EA15
:1006F0008357A4FB076802958D0A05FB07854FEA1F
:10070000932C04FB0C542705029D4FEA065847EA38
:100710001637B5EB08056EEB070C870E920E47EA0D
:10072000811742EA8312A7FB0201B6EB0B0164EBCF
:1007300000042B0D43EA0C335E1844EB1C50DA46E0
:100740005146E7FB0201C5F313044FEA0B3343EABA
:1007500014534FEA0432019C43EA0603A4F10C044B
:100760000294009CCDE900B4FFF746FF03B0BDE85A
:10077000F08F00200146F9E72DE9F04D81EA0304EE
:1007800004F0004B21F0004514464FF0000A23F01E
:10079000004150EA050220D054EA01021DD0C5F301
:1007A0000A570246C5F31303C1F31300C1F30A56F7
:1007B00040F4801543F48013A7EB0608101BD646BF
:1007C00008F2FD3873EB050002D308F1010801E0DF
:1007D00092185B41B8F1000F03DA00200146BDE832
:1007E000F08D00204FF48011064684460EE0171B62
:1007F00073EB050705D3121B63EB050306434CEAB5
:10080000010C49084FEA300092185B4150EA010799
:10081000EDD152EA030012D082EA040083EA050116
:10082000084305D0101BAB4106D20122002306E08D
:1008300000224FF0004302E06FF0010253101AEB68
:1008400006004CEB085110EB0A0041EB0B01BDE830
:10085000F04DFFF7C2BEC1F30A52C1F3130140F2DB
:10086000FF3341F480119A4202DA002001467047BA
:1008700040F233439A42A2F2334202DC524200F089
:100880002DB8FFF752BE000030B5041E71F1000410
:1008900004DB4FF00044404264EB0101141E73F18D
:1008A000000405DB1C464FF00043524263EB040397
:1008B000994208BF904230BD064C074D06E0E06803
:1008C00040F0010394E8070098471034AC42F6D397
:1008D000FFF732FCE0AC010800AD0108202A04DB80
:1008E000203A21FA02F00021704721FA02F3D040A9
:1008F000C2F12002914008431946704770B58C1828
:1009000010F8015B15F0070301D110F8013B2A1123
:1009100006D110F8012B03E010F8016B01F8016B10
:100920005B1EF9D12B0705D40023521E0DD401F80C
:10093000013BFAE710F8013BCB1A921C03E013F8D5
:10094000015B01F8015B521EF9D5A142D8D300200A
:1009500070BD40F2BC40C2F2000000F0A8B9000037
:10096000B0B5044600688168C9071AD0816821F0D3
:100970000101816000F0F3FD054600BF206880683A
:10098000C0070ED000F0EBFD401B0328F6D3A06A91
:1009900040F01000A062E06A40F00100E062012037
:1009A000B0BD0020B0BD0000FEE740F2EC40C2F256
:1009B000000000F071BB70477047B3F5804F18D14D
:1009C000B0B5002350F822C0CCF6F0730CEA030C4B
:1009D000D1E9003ED1E90245896943EA0C0343EAC3
:1009E0000E1343EA0423194341EA0541BDE8B04030
:1009F00001E06FF0704140F82210002070472DE9AF
:100A0000F0430A6801F1100750F8223023F0010387
:100A100040F822308123D1E900CED1E90289F0CF1C
:100A2000CFF6F77350F82C20B8F1080F02EA030252
:100A30004EEA080343EA090343EA040343EA0503D1
:100A400043EA060343EA0703D1E90876D1E90A54E9
:100A5000096B43EA070343EA060343EA050343EA53
:100A6000040341EA030141EA020108BF41F04001E9
:100A700040F82C100020BDE8F083F0B500EB8200B8
:100A800001F10C060027426891E8085070CECFF6BD
:100A9000F077896907EB055502F040421A4342EAB4
:100AA0000C1242EA0E2242EA04422A43114306F1A2
:100AB000FE0241EA026141600020F0BD10B541F242
:100AC0000804C4F20104206840070AD4052002F09B
:100AD000FFFA2068400756D420684007FCD5012063
:100AE00051E0206880070AD4052002F0F1FA20685E
:100AF000800748D420688007FCD5022043E0D4F862
:100B0000000880070CD4052002F0E2FAD4F80008AF
:100B1000800738D4D4F800088007FBD5032032E0E2
:100B2000D4F80008C0070ED1052002F0D1FAD4F89D
:100B30000008C00727D100BFD4F80008C0074FF055
:100B40000400F9D01FE02068C0040BD4052002F097
:100B5000BFFA2068C00416D42068C0044FF0050016
:100B6000FAD510E0206800050CD4052002F0B0FA98
:100B70002068000507D400BF206800054FF006007C
:100B8000FAD500E00020C0B210BD704770B581B04A
:100B90000022009290F82420012A01D102215EE077
:100BA000012280F824204B68062B08D8D0F800C01A
:100BB00003EB83035D1F624652F8344F11E0D0F817
:100BC00000C00C2B624606D852F8304F03EB83036B
:100BD000A3F1230505E003EB830352F82C4FA3F1A7
:100BE00041050B681F2603FA05FE06FA05F5092BD9
:100BF00024EA05044EEA040616601FD903EB4306F7
:100C0000DCF80C20896807251E3EB14005FA06F67F
:100C1000B2431143CCF80C1023F0010110291AD172
:100C200042F20841C4F20101A1F10802944519D031
:100C3000816A41F02001816201210DE003EB430252
:100C40000723DCF810608968934026EA030391408B
:100C50001943CCF810100021002280F82420084607
:100C600001B070BD0A681202F5D40A68102B42F474
:100C700000020A60EFD140F200014DF68362C2F239
:100C80000001C4F21B320968A1FB0212910C01EBB6
:100C900081014900009100990029DCD000990139B7
:100CA00000910021009A002AF8D1D5E7704710B5CD
:100CB000044600684168890644BF01685FEA8171A3
:100CC00019D44168090644BF01685FEA417138D40C
:100CD000416849060ED50068C00708BF10BDA06A6C
:100CE00040F48030A062204600F0F6F820686FF0F3
:100CF0000101016010BDA16AC9065EBFA16A41F48D
:100D00000071A162816801F46021B1F5602F10D1FA
:100D1000E16871B9416821F020014160A06A20F4C6
:100D20008070A062A06AC0045EBFA06A40F00100AB
:100D3000A0622046FFF7BAFF20686FF01201016041
:100D4000BFE7A16AC9065EBFA16A41F40051A16272
:100D5000816801F4E041B1F5E04F0FD1416821F025
:100D600080014160A06A20F48050A062A06AC005A2
:100D70005EBFA06A40F00100A0620BE04168490537
:100D800008D4816801F46021B1F5602F02D1E168D7
:100D90000029E3D02046FFF7F8FE20686FF00C0131
:100DA000016095E7002846D02DE9F04180460446D1
:100DB00058F8280F30B9002084F82400E06220465B
:100DC00000F08BF82046FFF7CBFDA26AA16AA0BB1A
:100DD00012F0100031D141F2021021EA000002307D
:100DE000A062D4E9000CD4E90221531EB2F5807F41
:100DF000B3FA83F34FEA5315134618BF2B02E66983
:100E000080F0804585F49E3586F440272F4308BF47
:100E10004FF400264CEA410747EA060C6769012FA8
:100E200019D171B1A16A41F02001A162E16A41F0DA
:100E30000101E1620FE00120704741F01001012043
:100E400046E04EF20007A169CFF6FF7707EB41318C
:100E5000194341F400634168B2F5807F21F4694190
:100E600041EA03014FF2FD734160CFF6E1738168FF
:100E700001EA030141EA0C01816001D0012A06D197
:100E800000222169CFF6F07202EB015100E000214F
:100E9000C26A22F470021143C16240F6FE618068AA
:100EA000CFF61F710840604506D100200122E062A4
:100EB000A16A62F301010BE0A06A40F0100020F08B
:100EC0000200A06254F82C0F40F001010120A0465E
:100ED000C8F80010BDE8F081704770B586B00026F4
:100EE000044640F60000CDE90466CDE90266C4F28E
:100EF0000100226800F5E0518A4244D141F2180114
:100F0000C4F202010A6842F400720A600A6802F43C
:100F100000720192019A0A6842F004020A600968AC
:100F200001F0040101910199032103910F21029124
:100F300002A900F021FA40F2EC45082180204FF48C
:100F4000005C4FF0200E4FF400624FF40073C2F2C9
:100F50000005C4F20201C5E90016C5E90260284691
:100F6000C5E90432C5E906EC00F0C3F908B1FFF7A2
:100F700023FD12200021002225626C6200F069FB33
:100F8000122000F059FB06B070BD90F82110022924
:100F900024D10268116821F00E011160116821F05E
:100FA000010111600421C4F2020101F17C039A42A3
:100FB00018D940F20843C4F202039A4245D040F2E5
:100FC0001C43C4F202039A4241D040F23043C4F2BF
:100FD00002039A423DD14FF4807342E004218163C1
:100FE000012070474323C4F202039A420EDD6B23B3
:100FF000C4F202039A421BDC4423C4F202039A4265
:1010000035D05823C4F202039A422DE00823C4F2DB
:1010100002039A422ED01C23C4F202039A422ED01D
:101020003023C4F202039A421ED14FF4807227E0AB
:101030006C23C4F202039A421ED08023C4F202033E
:101040009A4211D14FF080721AE0012309E0102377
:1010500007E001F5886C4FF48033624508BF4FF418
:101060008053C1F800340CE04FF4803208E04FF4B4
:10107000805205E0012203E04FF4801200E01022CC
:101080000A604FF480710184416B19B180B58847C3
:10109000002080BD0020704710B5D0E90FC3DCF8F8
:1010A0000020D0F800E0DEF800104C072CD5042416
:1010B0009C40144028D0DEF800100422C4F2020242
:1010C00089065EBFDEF8001021F00401CEF80010A2
:1010D00002F17C018E4549D940F20841C4F2020177
:1010E0008E4500F0A48040F21C41C4F202018E45FE
:1010F00000F09F8040F23041C4F202018E4540F082
:101100009A804FF480619EE08C0744D502249C4075
:10111000144040D0DEF80010890608D4DEF8001034
:1011200021F00A01CEF80010012180F821100422DC
:10113000C4F2020202F17C018E4545D940F2084119
:10114000C4F202018E4500F0A38040F21C41C4F2BB
:1011500002018E4500F09E8040F23041C4F202014F
:101160008E4540F099804FF400719DE04321C4F218
:1011700002018E453CDD6B21C4F202018E4549DC43
:101180004421C4F202018E4500F091805821C4F23E
:1011900002018E455AE0090740F1AA8008219940D2
:1011A000114008BF10BDDEF8001021F00E01CEF88E
:1011B0000010012101FA03F2CCF8042081634FF4FE
:1011C00080710184016B8FE04321C4F202018E45DE
:1011D0003FDD6B21C4F202018E454CDC4421C4F298
:1011E00002018E4572D05821C4F202018E4566E09C
:1011F0000821C4F202018E455CD01C21C4F2020118
:101200008E455FD03021C4F202018E451ED14FF4CD
:10121000806158E06C21C4F202018E454CD08021DF
:10122000C4F202018E4511D14FF080614BE00421E0
:1012300009E0402107E002F588634FF480219E45D4
:1012400008BF4FF48041C2F800143DE04FF4802104
:1012500039E00821C4F202018E453AD01C21C4F2C3
:1012600002018E453AD03021C4F202018E4526D1CA
:101270004FF4007133E06C21C4F202018E452AD094
:101280008021C4F202018E4519D14FF0007126E091
:10129000022109E0202107E002F588634FF40031C4
:1012A0009E4508BF4FF40051C2F8001418E04FF4F7
:1012B000804108E0042106E04FF4800103E04FF490
:1012C00000310CE040211160C16A0DE04FF4005183
:1012D00005E0022103E04FF4001100E0202111603D
:1012E000002180F82010816A11B1BDE81040084744
:1012F00010BDF0B310B540F200420168C4F2020222
:1013000002F1080399424FF6F83338BFA2F5806224
:10131000CBF6FD7338BF03F5806301EB030C4CF68D
:10132000CD43CCF6CC43ACFB033C6FF0030303EAA4
:101330009C03C0E90F2343F6F0730A6822EA030C0A
:10134000D0E90132D0E903E443EA0C031A434369CC
:1013500042EA0E0222431A4383691A43C3691A43BD
:101360000A6000214FF4807281630284BDE810405E
:1013700000E00121084670472DE9F04F82B041F6A8
:101380000042062740F200484FF6FF754FF0000C70
:101390004FF00F0E4FF0000A4FF0000BC4F20102A5
:1013A000C4F20108C1F210059042A0F1804208BFCA
:1013B0000527A2F584324FEAB223052B38BF4FEA46
:1013C000B2270122009700BF0E6802FA0AF916EA56
:1013D000090F00F0B9804E68AE4209DC032E35D803
:1013E000DFE806F029023F43D1F80CB044E000BF2B
:1013F0004FF6FF73C1F221039E420DDC0023C1F2C0
:1014000011039E4217D00023C1F212039E4212D054
:101410000023C1F221030CE00023C1F222039E420B
:1014200009D00023C1F231039E4204D00023C1F24F
:1014300032039E4220D18E6886B1012E14BFC0F8BF
:101440001490C0F810904FF0080B15E0112E0FD03B
:10145000122E04BFCE6806F10C0B0DE04FF0040B0A
:101460000AE0CE6806F1080B06E04FF0000B03E03F
:10147000CE6806F1040B00BF63460446BAF1080FBC
:1014800028BF203B28BF043427680EFA03F60BFA66
:1014900003F3B7433B432360CB79DB0654D541F2DA
:1014A00018032AF003064FF60842C4F2020346442A
:1014B000CFF6FF721F461B6843F001033B603B6899
:1014C00003F0010301930CF00C03019C0EFA03F7E7
:1014D000B45824EA0707009C04FA03F33B43B350D3
:1014E0000122D1F804E05FEACE33D8F8003054BFCF
:1014F00023EA090643EA0906C8F800605FEA8E336A
:10150000D8F8043054BF23EA090643EA0906C8F8AC
:1015100004605FEACE23D8F8083054BF23EA0906F6
:1015200043EA0906C8F808605FEA8E234FF00F0E01
:1015300040F20C43C4F201031F461B6854BF23EA68
:10154000090343EA09033B600AF1010A0CF1040CA8
:10155000BAF1100F04BF02B0BDE8F08F34E742F6D5
:101560000470C2F200000068704740F2181042F6A2
:101570000471C2F20000C2F2000100780A6810444F
:101580000860704780B542F20000C4F202000168B2
:1015900041F010010160032000F089F8002000F004
:1015A00004F800F028F8002080BDB0B5044640F2F1
:1015B00018104FF47A71C2F200000078B1FBF0F01D
:1015C00040F20001C2F200010968B1FBF0F000F046
:1015D00010FC01250F2C0CD858B94FF0FF302146D4
:1015E0000022002500F035F840F21C10C2F2000085
:1015F00004602846B0BD82B041F218000222C4F255
:101600000200016841F001010160016801F001017F
:1016100001910199416841F080514160406800F0BA
:101620008050009000980420C4F20100016862F329
:101630001A61016002B0704700F01F0101224009E9
:1016400002FA01F14EF20012CEF2000242F820102E
:10165000704780B500F160434EF60C5E002803F53C
:10166000644C00F00F03CEF2000EA3F104037344A8
:10167000B8BF03F10C0CDEF800004FF0FF3EC0F3E2
:101680000220C31E80F0070038BF0023042828BFB3
:1016900004200EFA00F021EA00000EFA03F198404F
:1016A00022EA0101084300018CF8000080BD4EF6DB
:1016B0000C514FF6FF03CEF200010A681A4060F3A6
:1016C0000A2242F0806040F0FD7008607047000020
:1016D0002DE9F04182B00446007841F20406C4F2DC
:1016E0000206C0075CD0B069C0000BD4B0694FF0EF
:1016F000010840F08050B061B06900F08050019066
:10170000019801E04FF0000847F20007C4F200071B
:101710003868C00510D4386840F480703860FFF72E
:101720001EFF05463868C00506D4FFF718FF401BAA
:101730006428F7D9032045E0F06910F4407021D007
:10174000616801F4407188421CD040F24041F06968
:101750000122C4F242210A6000220A6020F4407192
:10176000C007F1610ED0FFF7FAFE054641F2883757
:10177000F069800706D4FFF7F2FE411B0320B9424F
:10178000F6D91FE0F0696168B8F1000F20F44070ED
:1017900040EA0100F0611EBFB06920F08050B061E6
:1017A0002068810705D53168A26821F440411143C2
:1017B0003160C00605D53068616920F480000843B7
:1017C0003060002002B0BDE8F08100002DE9F04358
:1017D00081B042F2000804460D46C4F20208D8F86F
:1017E000000000F0070088420CD2D8F8000020F07A
:1017F00007002843C8F80000D8F8000000F00700F0
:10180000A8425BD1206841F20407C4F202078107B5
:1018100011D5410742BF396841F4E06139600107E1
:1018200042BF396841F4605139603968A26821F0DB
:10183000F00111433960C00739D1D8F8000000F039
:101840000700A8420CD9D8F8000020F00700284370
:10185000C8F80000D8F8000000F00700A8422DD119
:101860002068410705D53968E26821F4E061114339
:101870003960000706D53868216920F4605040EAD5
:10188000C100386000F082F8396841F6A8420024AF
:10189000C0F60102C1F30311515CC84040F20001DF
:1018A000C2F2000108600020FFF77FFE07E06068D9
:1018B000012808D157F8041C89030DD401242046BF
:1018C00001B0BDE8F08357F8041C022802D1890159
:1018D000F4D501E08907F1D5396821F00301084307
:1018E0003860FFF73CFE0646606841F288390128FF
:1018F0000ED0022818D100BF386800F00C0008286C
:101900009BD0FFF72CFE801B4845F5D916E000BFA1
:10191000386800F00C0004283FF48FAFFFF71FFE7B
:10192000801B4845F4D909E0386810F00C0F3FF4EB
:1019300084AFFFF714FE801B4845F5D90324BEE7AA
:1019400040F2000041F2040141F6B842C2F2000048
:10195000C4F20201C0F6010200680968C1F3022165
:10196000515CC840704740F2000041F2040141F66A
:10197000B842C2F20000C4F20201C0F601020068DF
:101980000968C1F3C221515CC840704741F2040CA0
:1019900041F20020C4F2020CC0F27A00DCF8002010
:1019A00002F00C03082B18BF7047C2F383430AA14F
:1019B000CB5CD10305D440F60010C0F23D00584383
:1019C0007047DCF8001008A25843C1F34041515C55
:1019D000B0FBF1F0704700BF0203040506070809D9
:1019E0000A0B0C0D0E0F1010010200002DE9F04142
:1019F00082B00446007841F20006C4F20206C00735
:101A00004BD0706800F00C00042817D0706800F00C
:101A10000C00082802D17068C0030FD4606898B128
:101A2000B0F5803F06D03168B0F5A02F21D141F448
:101A300080203060306840F4803020E030688003DF
:101A40002BD5606848BB1CE1306820F480303060E2
:101A5000306820F480203060FFF781FD054600BF2C
:101A60003068800319D5FFF77AFD401B6428F7D949
:101A7000F6E021F480303060306820F4802030605F
:101A8000FFF76DFD054600BF3068800305D4FFF702
:101A900066FD401B6428F7D9E2E0207880072FD547
:101AA000706810F00C0F07D0706800F00C00082868
:101AB00009D17068C00306D43068800719D5206941
:101AC000012816D0DDE021690020C4F2422000295F
:101AD00000F08B8001210160FFF741FD054600BF4A
:101AE0003068800705D4FFF73AFD401B0228F7D97C
:101AF000B6E03068616920F0F80040EAC10030606B
:101B00002078000738D5A06988B100200121C4F2EF
:101B10004220C0F88014FFF722FD0546706A800756
:101B200017D4FFF71CFD401B0228F7D998E00020CE
:101B30000021C4F24220C0F88014FFF710FD0546D2
:101B4000706A800718D5FFF70AFD401B0228F7D9F5
:101B500086E040F2000044F6D351C2F20000C1F228
:101B600062010068A0FB0101480A019000BF0198D2
:101B7000411E00280191F9D12078400779D5F069FC
:101B8000C0000BD4F0694FF0010840F08050F061C4
:101B9000F06900F080500090009801E04FF00008DC
:101BA00047F20007C4F200073868C0050FD4386850
:101BB00040F480703860FFF7D2FC05463868C005F5
:101BC00005D4FFF7CCFC401B6428F7D948E0E06857
:101BD000D0B1012805D0316A05282CD141F004008C
:101BE0003062306A40F001002BE000210160FFF715
:101BF000B6FC0546306880077FF582AFFFF7AFFC83
:101C0000401B0228F6D92BE0306A20F00100306238
:101C1000306A20F004003062FFF7A1FC054641F273
:101C2000883700BF306A80071CD5FFF798FC401B3F
:101C3000B842F7D914E021F001003062306A20F098
:101C400004003062FFF78BFC054641F2883700BF85
:101C5000306A800706D4FFF782FC401BB842F7D9F0
:101C6000032054E0B8F1000F1EBFF06920F080504F
:101C7000F061E769002F49D0706800F00C00082877
:101C800001D1012043E040F200080020C4F24228C4
:101C9000C8F86000FFF763FC0546022F0AD100BFB9
:101CA0003068800110D5FFF75AFC411B0320022940
:101CB000F6D92CE03068800128D5FFF750FC411B95
:101CC00003200329F6D322E0206AB0F5803F05D136
:101CD0007168A26821F40031114371607168626A11
:101CE000104321F47411084370600120C8F86000AB
:101CF000FFF735FC044600BF3068800106D4FFF7CB
:101D00002EFC011B03200229F6D900E0002002B0BE
:101D1000BDE8F08130B370B5044690F83D0015463B
:101D20000E4628B9002084F83C00204600F01CF83C
:101D3000206804F10801FEF762FE2068A2683146BF
:101D4000FEF79BFED4E90102236B2946FEF735FE20
:101D50002068A16850F8212042F0010240F82120BB
:101D6000002070BD01207047F0B585B00020CDE99E
:101D70000300CDE9010040F24010C2F200000178FA
:101D800041BB012141F200440326022701AD01704D
:101D900041F21400C4F20104C4F20200016841F4EB
:101DA000807101602946006800F4807000900098FE
:101DB000049602974FF6C070019004F58060FFF71B
:101DC000DBFA4CF2B3700496029729460190204644
:101DD000FFF7D2FA05B0F0BD4EF210010428CEF2A2
:101DE00000010A6822F0040308BF42F004030B60FC
:101DF0007047411E0020B0EB116F1CBF01207047DF
:101E00004EF21002F023CEF2000251604EF6235142
:101E1000CEF200010B70072190601160704770478F
:101E200090F8391090F83A000843C0B27047B0B546
:101E3000054600680168C26843695FEA017C57D0C3
:101E400002F4907403F00103E41859D0CC071FBFCB
:101E500012F48074EC6B44F00104EC634C0704D57D
:101E60001BB1EC6B44F00204EC638C0704D51BB18E
:101E7000EC6B44F00404EC63BCF1000F04D51BB11F
:101E8000EB6B43F00803EB63EB6B002B71D011405D
:101E9000890603D5284600F03FFF28684169EA6BB0
:101EA00001F0400102F00802891853D0C16821F402
:101EB0009071C160416921F001014161202185F8E3
:101EC0003A104169490640D5416921F0400141611C
:101ED000686BD0B342F60D51C0F600014163FFF7C5
:101EE00054F8002845D0686B416BBDE8B040084706
:101EF00011408A0605D52846BDE8B04000F00CBF69
:101F000011400A060DD4490633D5C16821F04001BD
:101F1000C160202085F839002846BDE8B04000F0B7
:101F2000F9B895F83910212923D1AA68296AB2F5A0
:101F3000805F15D10A886FF35F2242602A69002A08
:101F400014BF0131023129620EE02846BDE8B040DD
:101F5000FFF765BF2846FFF762FF0020E863B0BDCA
:101F60004A1C2A6209784160E98C0139E984090434
:101F700000D0B0BDC16821F08001C160C16841F0EE
:101F80004001C160B0BD50B310B5044690F83900AF
:101F900028B9002084F83800204600F022F82420D8
:101FA00084F839002068C16821F40051C1602046DE
:101FB00000F0EEFE2068016921F490410161416961
:101FC00021F02A014161C16841F40051C160002043
:101FD0002021E06384F8391084F83A1010BD012004
:101FE000704770B586B0002640F60004CDE904665F
:101FF000CDE90266C4F20104006804F5405188424C
:102000002AD141F2180002ADC4F20200016841F485
:1020100080410160016801F48041019101990168EA
:1020200041F0040101602946006800F004000190BD
:10203000019803200590022003904FF40070029055
:102040002046FFF799F94FF48060CDE903662946F1
:1020500002902046FFF790F906B070BD034690F855
:102060003A00202806D10120E9B1E2B193F8380006
:10207000012801D1022070470020DA85D8639A85B3
:102080009962222183F8380083F83A101968CA68E7
:1020900042F48072CA604A6942F001024A61CA6829
:1020A00042F02002CA60704743F600010068C4F2A3
:1020B0000101884200D0704740F24C20C2F200007B
:1020C00001880A0448BF704740F2AC224B04C2F2B8
:1020D0000002127817D40D2A02BF41F4804101801A
:1020E000704740F2841301F1010C6FF39F31C2F28B
:1020F00000035A541FFA8CF1C72988BF4FF0000C17
:10210000A0F800C070470A2A14BF002141F4004122
:102110000180704770470000FEE72DE9F04F81B065
:1021200000F0D1F84FF0C04401204FF0C145002627
:1021300003214FF00C0911274FF012084FF0130B39
:102140004FF0100A20802E80218041F21801298052
:10215000602121804FF41C512980022121804FF4FD
:10216000E06129800421218008212E80218040F215
:1021700007212980092121800A212E8021800D211B
:102180002E80A4F800902E8021800F212E802180A7
:1021900010212E80218007212E8027802980A4F8FD
:1021A00000802E80A4F800B02E8021802880C820D6
:1021B00000F08EFF41F29040A4F800A04FF0320AE8
:1021C000288040F2272027802880322000F080FFDE
:1021D0001920A4F800802880322000F079FF4FF405
:1021E0008050A4F800B02880292020802B20A5F85A
:1021F00000B020803220A5F8009000F069FF202078
:1022000040F20731208021202E80208030202E8037
:10221000208031202E80208040F207702880A4F892
:1022200000A02980352121804FF4007129803621BA
:10223000218008212980372121800421298038210B
:10224000218039212E80218028803C20208002207E
:1022500028803D20208040F60400288050202080E7
:1022600051202E802080EF20288052202080532073
:102270002E80208040F23F10288061202080802026
:102280002E80208081202E80208082202E80208021
:1022900083202E80208084202E80208085202E8008
:1022A000208090202E802080102028809220208066
:1022B0004FF4C06028800720208040F2331028802F
:1022C00001B0BDE8F08FB0B540F610444FF448704F
:1022D0004FF48055C4F20104256000F0F9FE4FF47C
:1022E0004870656000F0F4FE25604FF44870BDE86A
:1022F000B04000F0EDBE000070B5FEF7DFFB013826
:10230000052800F2A580DFE800F0032B41A3A3A479
:1023100040F2F80540F22816C2F20005C2F20006AB
:102320002868316804682046FEF77BF8002800F032
:10233000A28040F220100221C2F20000286042F682
:10234000B440C2F20000006803F06CF942F6B840F5
:102350000021C2F200000068BDE8704003F062B9DD
:1023600040F20400C2F200000078002800F0A080D3
:10237000012800F0B280022840F0BD8040F2F80051
:102380000021C2F20000CBF68071ADE040F2F80609
:1023900040F22815C2F20006C2F2000530682C682F
:1023A00000682146FEF73DF8F0B100212046C4F256
:1023B0002011FEF728F8014640F20400C2F20000A6
:1023C0000029027840F20830C2F20000006819BF0C
:1023D00040F20B01C2F2000140F20E01C2F2000114
:1023E000895C78220BF06EF840F22010C2F20000F7
:1023F000016830680068FEF714F8F0B10021286821
:10240000C4F22011FDF7FFFF014640F20400C2F2C2
:1024100000000029027840F20830C2F20000006893
:1024200019BF40F20501C2F2000140F20801C2F2F8
:102430000001895C78220BF045F840F20400C2F2FA
:10244000000001780131CAB2022A88BF0021017060
:1024500070BD40F20400C2F200000078002859D09C
:1024600001286CD0022878D140F2F8004FF07E515C
:10247000C2F200006AE040F22010C2F200000168DF
:102480002046FDF7CEFF0028E2D042F6B4400021FE
:102490002E60C2F20000006803F0C4F842F6B840B3
:1024A0000221C2F200000068BDE8704003F0BAB833
:1024B00040F2F800C2F2000005682868FDF7BFFF8F
:1024C00049F69A1249F69913C9F69912CBF6B973DF
:1024D000FDF7E4FEFDF7C6FF0AE040F2F800002138
:1024E000C2F20000CCF2201105682868FDF77EFEDC
:1024F0000446286005E040F2F800C2F200000568DA
:102500002C68204600210026FDF77DFFA8BB2E6029
:10251000002432E040F2F800C2F2000006683068A1
:10252000FDF78DFF49F69A1249F69913C9F69912EB
:10253000C3F6B973FDF7B2FEFDF794FF0AE040F26F
:10254000F8000021C2F20000C4F2201106683068D1
:10255000FDF74CFE0446306005E040F2F800C2F2A0
:1025600000000668346800252046C4F2C6252946C6
:10257000FDF73BFF08B92C46356040F22810C2F247
:10258000000001682046FDF74CFFA0B12046FDF792
:1025900056FF40F211140B464AF6FC110246C2F2F5
:1025A0000004C0F6010120460EF0FCFE42F6DC609D
:1025B000C2F200001EE040F22010C2F200000168EA
:1025C0002046FDF72EFF002808BF70BD2046FDF70E
:1025D00036FF40F2FC040B464AF6FC110246C2F2FA
:1025E0000004C0F6010120460EF0DCFE42F6D46085
:1025F000C2F2000000682146BDE8704009F072BCDC
:102600002DE9F0438FB29F4288BFBDE8F08340F2CE
:102610003F17DDF81CC04FF021084FF0C1454FF0C7
:102620002009A7EB000EC0F10100222710444FF053
:10263000C04280B20028A2F80080A5F800E0A2F80D
:1026400000902980178007D0002400BF0134A5F82E
:1026500000C0A6B2B042F9D801318CB29C42E9D98F
:10266000BDE8F0834FF0C0422123138040F23F13B6
:10267000181A4FF0C143188020201080198070472D
:1026800010B501F0100401230168A34019421CBFDA
:10269000002010BD5368D0F800C04BB11168D2F8CB
:1026A00008E00C32194340F6FA734EEA010E02E0DC
:1026B000D2F80CE0FA23126803FA04F12CEA0101C3
:1026C00042EA0E02A24011430160012010BD000049
:1026D0002DE9F04FB1F8018098FAA8F3B3FA83F32B
:1026E00038FA03F76AD04FF0010C4FF00F0B4FF0A0
:1026F00003094FF0040A00BF0CFA03F515EA080FAE
:1027000058D0072B04D840F2011202FA03F707E071
:10271000A3F108054FF0011202FA05F545F08067B4
:102720003D0E4C682E5897FAA7FEBEFA8EF2920024
:102730000BFA02F226EA020297FAA7F6B6FA86F632
:10274000B60004FA06F63C0A32432A500A69C66803
:1027500094FAA4F4B4FA84F426EA1726A240324389
:10276000C2604A6842F00802092A23D142598E68A1
:1027700097FAA7F4B4FA84F4A40009FA04F4A24383
:1027800097FAA7F4B4FA84F4A400A6403243425165
:10279000CE6897FAA7F497FAA7F7B4FA84F4B7FAD1
:1027A00087F7A400BF000AFA04F406FA07F7A24369
:1027B0003A434251013338FA03F29DD10120BDE87A
:1027C000F08F40F6FF330268C4F2000398420DDC3C
:1027D000B0F1804F1CD040F20043C4F20003984295
:1027E00016D040F60003C4F200030FE040F60043A9
:1027F000C4F2000398420BD043F20043C4F2010339
:10280000984205D042F60043C4F20103984208D131
:102810004B6822F45C7CCA6823F4407343EA0C03DF
:102820001A4302608A68C2620A88826243F20042E6
:10283000C4F20102904205D042F60042C4F2010205
:10284000904201D1097C0163416941F0010141617C
:1028500001207047B0B584B040F2BC4042F2004263
:102860004FF46021002401250423C2F20000C4F2C9
:102870000102C1614FF48071C0E90024C0E9021572
:10288000C0E904340394CDE90144FEF78BFA08B1A2
:10289000FEF792F8052001A9039040F2BC40CDE973
:1028A0000145C2F20000FEF771F908B1FEF784F8A5
:1028B0000224012001A90294019040F2BC40C2F21E
:1028C0000000FEF763F908B1FEF776F840F2BC406D
:1028D000032501A9C2F20000CDE90145FEF756F932
:1028E00008B1FEF769F8042001A9CDE9015040F2D2
:1028F000BC40C2F20000FEF749F908B1FEF75CF8EF
:1029000004B0B0BDB0B58AB0002541F2180047F25E
:10291000004407950495CDE90255C4F20200C4F2C3
:102920000004416841F000514160416801F00051EC
:1029300009910999016841F0040101606946006844
:1029400000F0040009900998019543F230000090CE
:1029500004F51440FFF7BCFE0121089506953820C8
:1029600005AD0590C0F2102120462A46FFF788FEEB
:10297000206812212A46C1F2435120F00400206051
:102980002046FFF77DFE206820F4802020600AB0FA
:10299000B0BD80B582B041F214000022C4F2020042
:1029A000016841F0010101600021006800F00100B0
:1029B000019001980B20FEF74CFE0B2002B0BDE801
:1029C0008040FEF739BE80B588B040F2305040F20A
:1029D00004134FF020414FF0100C0022C2F200000F
:1029E000CAF20003C0E900134FF48051C0E902228B
:1029F000C0E9042CC0E90622C0E90822C0E90A1295
:102A00001121C0E90C220792826306910521CDE9CC
:102A1000042C03910F21CDE9012101A90022FFF728
:102A200079F908B1FDF7C8FF1C20C4F20100016864
:102A300041F48061016008B080BD2DE9F04786B0A7
:102A400041F218004FF0000840F6004A01274FF00D
:102A500008096C46CDE90288C4F20200C4F2010AFA
:102A600001680AF5806641F040010160016801F0EB
:102A7000400105910599016841F01001016001686C
:102A800001F0100105910599016841F00401016010
:102A9000016801F0040105910599016841F0080100
:102AA0000160016801F0080105910599016841F094
:102AB000200101604FF4D071006800F02000059003
:102AC000059841F21400C4F2010001604FF48050F7
:102AD0002146CAF814000620CAF8100040F21E6011
:102AE0000497CDF80490C0F2184000903046FFF7EC
:102AF000EFFD4AF2A1000225CDF80C802146C0F27C
:102B00000140CDE9017500903046FFF7E1FD40F24C
:102B10000660CDE90387CDE9017521460090504656
:102B2000FFF7D6FDCDF80C80CDE9017502252146D1
:102B3000C0F2024505F10E1000905046FFF7C8FDA7
:102B400004202146CDE900503046FFF7C1FD40F298
:102B500003300497CDF804902146009041F6000020
:102B6000C4F20100FFF7B4FD06B0BDE8F087B0B5D0
:102B700086B06C4614212046FDF70FFB41F21C0085
:102B80004FF080524FF08045C4F20200016841F0DE
:102B9000010101600021006800F001000590059826
:102BA0004EF60C50CEF2000000684EF20010CEF24D
:102BB000000080F81C13026047F230500391CDE909
:102BC000011040F2CF202146ADF800004FF08040C8
:102BD000FFF7F7FD286844F2070240F08000286004
:102BE0000420C4F200004168914302224160016860
:102BF00062F306110160416821F08001416006B076
:102C0000B0BD80B540F2745043F6000200214FF091
:102C10000C0C4FF4E133C2F20000C4F20102C0E92F
:102C20000023C0E90211C0E9041CC0E90611FFF746
:102C3000AAF9002814BFBDE8804080BDFDF7BCBEE6
:102C4000FEE7704770477047FEF78FBC70B596B0CF
:102C500001AC00251421201DCDE91155CDE90F55FA
:102C6000FDF79BFA4FF4E0100226012115904FF476
:102C700080301490139610910E95CDE90C100CA88D
:102C8000FEF7B4FE4FF480600B9502210A900F20EE
:102C9000CDE90865079007A8FEF798FD4FF40040BE
:102CA000039020460196FEF713FD16B070BD41F269
:102CB00000000022C4F20200CFF6FF02016841F0DA
:102CC00001010160416811404FF6FF724160CFF68B
:102CD000F662016811400160016821F48021016001
:102CE000416821F4FE0141604FF41F0181604EF6FE
:102CF00008504FF00061CEF20000016070471020D4
:102D00006FF00101C4F2000001607047406A0021C9
:102D1000C185C184FFF783B890F83A10222918BF03
:102D200070478168B1F5805F08D102680369816AE4
:102D3000526883B1D2B221F8012B10E00269016818
:102D40004968002A826A02F10103836218BF01F018
:102D50007F01117004E06FF35F2221F8022B816282
:102D6000C18D0139C185090400D070470168CA6866
:102D700022F02002CA60CA6822F48072CA604A69DE
:102D800022F001024A61202180F83A10FFF78CB945
:102D90002DE9F04381B00446006841F20C660169F8
:102DA000E26821F4405111430161A168D4E9042390
:102DB000C7681143B74319433943C1604169A269E8
:102DC00021F440711143416143F60001C4F2010155
:102DD000884240D0FEF7B4FDD4F804808146FEF767
:102DE000AFFD65680646FEF7ABFD616819277843BD
:102DF0008900B0FBF1F048F21F51C5F2EB11A0FBC6
:102E000001235A09642302FB130206FB07F3AE00F9
:102E1000B3FBF6F3181A4FEA88031044322202EB90
:102E20000010A0FB0102F02000EA521009FB07F29B
:102E3000B2FBF3F2A2FB01126FF00F0101EA5201A3
:102E40004518FEF77DFD616878438900B0FBF1F617
:102E5000FEF776FD3FE0FEF786FDD4F8048081465C
:102E6000FEF781FD65680646FEF77DFD616819275E
:102E700078438900B0FBF1F048F21F51C5F2EB1125
:102E8000A0FB01235A09642302FB130206FB07F38C
:102E9000AE00B3FBF6F3181A4FEA8803104432224F
:102EA00002EB0010A0FB0102F02000EA521009FB27
:102EB00007F2B2FBF3F2A2FB01126FF00F0101EA7D
:102EC00052014518FEF74FFD616878438900B0FB59
:102ED000F1F6FEF748FD616848F21F527843C5F2EB
:102EE000EB128900B0FBF1F0A0FB0237311A7B092D
:102EF000642703FB17000844322101EB0010A0FBFC
:102F00000201C1F3431021682843886001B0BDE885
:102F1000F0830000F0B581B040F24414C2F2000426
:102F20002046FEF784FF4FF6FE764FF0FF35C0F2E5
:102F3000010600BF2046FEF773FF202802D00135AE
:102F4000B542F7D940F2441440F2AC254FF0FF37B8
:102F5000C2F20004C2F20005204629460122FFF712
:102F60007DF810B10137B742F6D901B0F0BD0000CD
:102F7000FEE700002DE9F04F81B040F25420C2F28C
:102F8000000009F0B8F888B140F254240146C2F2BA
:102F9000000400BF91F8200000F0F70081F8200045
:102FA000204609F0ADF801460028F3D140F2147034
:102FB000C2F2000000680CF029FB814640F2542068
:102FC000C2F2000009F097F800286CD040F2F82413
:102FD00040F2542506464FF0000A4FF0010BC2F2B2
:102FE0000004C2F2000500BF84F800A096F820009B
:102FF000010751D440F0080086F82000708B484447
:1030000001B2708300293FDB308B8142C8BF7083DF
:103010003046F1688847726812B1014630689047BF
:10302000308BB6F91A1081422EDB96F8200081070A
:1030300003D000F00701052911D13768D6F80880C0
:103040002846314609F0CFF8304609F037FCB8F190
:10305000000F84F800B01AD03846C04714E010F0D2
:103060000101F18BC1F1000171830DD010F0040159
:1030700080F0040002BFB18B4942718386F82000C2
:10308000D6E90401C6E904102078012804D12846B5
:1030900009F031F804E000BF2846314609F030F865
:1030A00006460028A0D10CF0C3FA40F21471C2F217
:1030B0000001086001B0BDE8F08F10B5044604209F
:1030C000FEF78AFE40F2B840C2F20000046010BD74
:1030D000B0B518B340F2B8414EF214034FF47A720F
:1030E0004FF0000CC2F20001CEF20003096801FBB0
:1030F00002FE00BF1A685C68002100BF5D68AC4238
:10310000FCD02144AC422C46A1EB050198BF1144F0
:103110007145F3D30CF1010C8445EBD1B0BD8A07A6
:1031200001F1040218BF22F003010B1D0268B3EB8A
:10313000520F08BF1946B1EB520F01D149000FE001
:103140004218536823F0010353606FF00703A3EBA9
:10315000410C03684900634423F001035360026893
:1031600002F001021143016070470000302806D3CD
:10317000392801D8303818E0602888BF2038C0B21C
:10318000A0F14101052907D80A20DFE801F00E036C
:1031900007090B0D0B2008E0002006E00C2004E0DE
:1031A0000D2002E00E2000E00F20C0B270470000AA
:1031B0002DE9F04F83B00446007F410700F14581BF
:1031C000656935B1800713D4284610210AF027F924
:1031D00070B908F053FF0146204600F049FC05464F
:1031E00030B90AF065FD0146204600F041FC054675
:1031F00060692E4685424BD061680028A1600CD0E2
:1032000040F2B8518369C2F200010A680A21984766
:1032100094F82800800700F118810026002DC4E9E9
:10322000055535D00CF004FA2062C4E9036694F821
:10323000280000F0FE0084F82800207F00F0FC0049
:1032400020776069A8B1002690F83010890648BF41
:1032500006460AF045F80028F6D156B130460AF085
:103260003FF804303246014608F00EFF30460AF0BF
:103270007FF840F2B8500821C2F20000026860698D
:103280008369984794F82800800700F1DE8066691A
:103290002089A188002EA1EB0000A0816089E1882F
:1032A000A1EB0000E08100F0D08040F2B858B36993
:1032B00030460921C2F20008D8F80020984794F857
:1032C0002800800700F1C1806669304605E000BF34
:1032D0003EB130460AF004F8064609F0D9FF00284E
:1032E000F6D1002E76D0304609F0CDFF002871D0FF
:1032F000A089218A0F182782E189628A5318638284
:1033000094F81CC05FEACC720ED13FB2002F00D5FA
:103310007F42092F05DC1BB2002B00D55B420A2B34
:1033200058DB4CF001022277084353D030460AF0B4
:1033300013F8834630460AF015F807460AF0CFF92D
:103340000090B6F810A0B6F81290304609F0C8FF09
:1033500009F0FCFF0290304609F0C2FF09F0A6FF19
:103360000190A089584401B2E089384402B2304645
:103370000AF0A8F8308A50451BD1708A484518D108
:10338000304609F0ADFF09F0E1FF0746304609F08D
:10339000A7FF09F08BFF02998F421BD10199884248
:1033A00018D10AF09CF90099401A80B20AF0ABFAE1
:1033B00010E0207FC1070AD0D8F80020B36930465A
:1033C0000E21984794F82800800703D4207F40F00E
:1033D0000200207794F82800810736D4217F00F07E
:1033E000010001F00201401816D1206A0CF00EF91C
:1033F000B0F5C87F10D9D8F80020AB6928460C2159
:10340000984794F8280081071FD440F0010084F801
:1034100028000CF00DF96062207F800715D494F825
:103420002800C00711D0606A0CF0F0F865280CD3B2
:10343000D8F80020AB6928460D21984794F8280059
:10344000800702D40CF0F4F8606203B0BDE8F08F9E
:1034500070B584B00446007F410716D46069E0B1BE
:10346000102109F0DCFF6169002866D0204600F0D9
:10347000FFFA40F2B851C2F200010A6861698B6933
:10348000884261D008460A215FE0002100F0FB007D
:10349000C4E90811C4E905112077A569002D00F0E1
:1034A000C48094F82800800700F1BF80207F800747
:1034B00040F1BB80284609F0EBFE58B1284609F0E0
:1034C0000FFF054609F0E4FE08B1002DF6D1002DEE
:1034D00000F0AB80284609F0E0FEF0B1B4F90C0032
:1034E00048F21F52B4F90E10C5F2EB1200EB800047
:1034F000000180FB0203581100EBD37301EB810044
:103500000001A38180FB0201481100EBD170190476
:10351000E08154D180B2002851D1207F0F2100F0EA
:10352000FD00207740F2B850C2F20000AB6902689B
:10353000284604B0BDE87040184740F2B8508B6987
:10354000C2F20000026808460B21984794F8280050
:1035500080076AD4606909F0A7FE054607F0C3FD3D
:1035600018B12846002107F00BFE6069202109F000
:1035700056FFD8B9606909F097FE656910B17DB949
:1035800014E000BF284609F0ABFE78B120210546C3
:1035900009F045FF50B9284609F086FE0028F1D011
:1035A00007F099FD10B1284607F01EFD94F8280099
:1035B00080073AD40020C4E9080060616DE702A9E1
:1035C000284609F059FE284609F0C6FEA1890E18C2
:1035D000284609F0C7FEE28931B2104402B22846FB
:1035E00009F070FF6946284609F046FEBDF8000064
:1035F000BDF80810814201D0A089B0B9BDF8020021
:10360000BDF80A10814201D0E08970B900200F2175
:10361000E060207F00F0FD00207740F2B850C2F259
:103620000000AB6902682846984704B070BD0000EE
:103630002DE9F04F85B04AF62D210FF20C43002002
:1036400040F22B124FF00008C0F6010109F074F8A7
:10365000002007F0EAFD002800F0E38140F2B859AD
:10366000044601AD0DF1120BC2F20009C9F8004089
:1036700094F8340081070FD500F0FC00C4E90B88F2
:10368000C4E90788C4F8248084F8340094F828102A
:1036900001F0FC0184F82810400700F1BB8104F11F
:1036A0000C0A13E0D9F80020BB6938460C21984772
:1036B00007E0D9F80020BB6938460C2198470DF186
:1036C000120B94F8340040F0010084E120462946B2
:1036D00007F0B4FD064694F8340081070FD500F0DA
:1036E000FC00C4E90B88C4E90788C4F8248084F886
:1036F000340094F8280000F0FC0084F828009DF8BD
:103700000C000128207302D10BF092FFE0632078B7
:103710000138032800F26781DFE800F00210364824
:10372000206C00286AD0A28ABDF804108A425FD1BA
:10373000E38ABDF8062093425CD15FE0206C00284C
:1037400000F051819DF80C1000296AD0012940F049
:103750004581207C012800F08880002840F03E81CF
:103760000BF066FFE062206C07F0C5FC002800F05B
:10377000358101990A2940F03181D9F80020836907
:10378000082198472AE100BF206C019930F82120D8
:1037900000EB8100228240886082A18A91423BD165
:1037A000E18A814238D19DF80C002EE0206C00287F
:1037B00000F019819DF80C10002940F0928007F06C
:1037C00092FCBDF8041000283FD008B2B0F1FF3FD2
:1037D0006FDD002900F08380002700BF206C1321DB
:1037E00007F0BDFCBDF9040001378742F6DB76E047
:1037F000BDF8062009B212B209F064FEBDF804005B
:103800002082BDF806006082207B012804D150464A
:10381000FFF7CEFC03E000BF5046FFF719FE20691A
:10382000E0E0217C012940F0D980616941F0020289
:1038300001910B2A33D1002107F0A2FC019909293B
:103840002DD1206C07F094FBBDE008B2B0F1FF3F32
:103850003BDD002943D00027206C07F089FBBDF930
:10386000040001378742F7DB39E001980A2804BFDA
:1038700094F834005FEAC07040F0B080E06A0BF06A
:10388000C5FEB0F5C87F40F2A980206C07F033FC7C
:10389000002800F0A380D9F80020836906E70A29F0
:1038A00000F080800B2940F08380206C07F0D7FB6C
:1038B00089E00027206C142107F051FCBDF90400B9
:1038C000013740428742F5DB09E00027206C07F012
:1038D000C6FBBDF90400013740428742F6DB9DF884
:1038E0000C1051B1012979D1207C01282BD000285E
:1038F00074D10BF09DFEE06270E0207C01286DD158
:10390000206C07F0F8FB00288DF8128048D08369FE
:1039100014215A4698479DF81200276C00284ED073
:1039200094F8340097F8581000F00100890741D44A
:10393000002848D1384607F0D6FB80F00101384610
:1039400007F01EFC3FE094F83400C00746D1E06A5F
:103950000BF05CFEB0F5C87F40D9206C07F0CBFBC4
:1039600000288DF813803FF4ACAE836914210DF16B
:103970001302074698479DF8130000283FF492AEC3
:10398000D4F840B0DBE9010188423FF492AE5846DA
:1039900007F0A9FB80F00101584607F0F1FB8EE625
:1039A000276C0CE094F83400C0070CD1206C07E0C1
:1039B000206C06E018B1D7E90101884203D13846EE
:1039C0000A2107F0CCFB94F8340081070BD400F0F7
:1039D000FE00C4F82C8084F8340000BF9DF80C0071
:1039E00020740198606194F8340081070FD500F0CD
:1039F000FC00C4E90B88C4E90788C4F8248084F873
:103A0000340094F8280000F0FC0084F82800002E10
:103A10007FF45CAE204607F008FC044600287FF4E3
:103A200025AE40F2B8504AF62D210CA34FF4AB72EC
:103A3000C2F20000C0F60101C0F80080002008F0CA
:103A40007BFE05B0BDE8F08F696E64657620746119
:103A5000736B20737461727465640000696E6465D1
:103A600076207461736B2066696E697368656400A3
:103A7000F0B581B005460C4601F11000291D01F09A
:103A80008BF828B3261D304608F035FB60B1074699
:103A900028463946FFF7ECFFD8B93046394608F0DA
:103AA0002FFB07460028F3D1204609F0E0FB014632
:103AB000002074B169B12546284609F0FDFB38B9EC
:103AC000284609F00DFC05460028F5D1204600E007
:103AD000002001B0F0BD00002DE9F04F03AF99B018
:103AE0008246B86947F8243C93F8383047F8202CD0
:103AF000FF281CBF5843030A9AF818C0BAF90050AF
:103B0000BAF90490BAF902E0BAF90640A4EB0E0B38
:103B1000A9EB0500BCF1000F05D06218724506DD67
:103B2000CBF1000B04E009EB0102AA42F8DD4042B0
:103B300057F8242CB2F93660ADEBC608C546B2B2D0
:103B400047F8283C47F8388C002A00F06B820301C4
:103B50004FEA0B10A8461DB20FFA80FB4FF0FF335F
:103B60004FF0FF30002DC8BF012347F8403CBBF1A8
:103B7000000FC8BF012047F8300C47F82C5C002D1F
:103B800044BF684247F82C0C47E9124C47F83CBC4C
:103B9000BBF1000F44BFCBF1000047F83C0CD00054
:103BA0000FFA80FCBCF1010F55DB47E9179E47F87F
:103BB0004C1C47E9158206FB06F14FF00009002670
:103BC00057F83C0C57F82C2C00B20FFA82FE4242F8
:103BD000704547F8342CD8BFCEF1000000EBD07010
:103BE0004410002057F8382C03B25B4322F8290018
:103BF00002EB890832B202FB0232A8F802608A4264
:103C00002CD21FFA8BF283B2934207D1AAB2B3B27D
:103C1000934203D158462E4614E000BF57F8343C77
:103C200022B29A4257F82C3CC8BFE41A57F8303CED
:103C3000C8BF1844724505DA57F8402C164457F8A7
:103C40003C2C144409F10109E145CBDB57F8388CD1
:103C500057F8502C06E057F8388C0EE057F8388C9F
:103C6000A9F10102A7F14C0C57F8545C57E9179ED3
:103C700010049CE8121000F0D58113B2002100203E
:103C8000002BC8BF012147F8481C47F8502C47F8C3
:103C9000643C012BC0F2898108EB830008F1020526
:103CA00094B24FF0000930F8021C30F8040C00EB1D
:103CB000D03001EBD13100B209B246104FEA610BAE
:103CC000A7F1340181E85008002000BF35F8021C3C
:103CD000B9F1000FA1EB060125F8021C2A88A2EB1E
:103CE0000B022A8000F05B819AF81830002B5FD01D
:103CF00035F8063C89B28B4200F0518100B2BAF926
:103D0000123008EB800138F820E0BAF80000B1F872
:103D100002C0BAF80210B3F1FF3F7044A2EB0C06E8
:103D2000A0F1010040F3A38057F8248CB8F83420A8
:103D300082B057F8404C4FF6FF73614457F828BCE7
:103D400000B247F8446C47F84CEC09B224EA03038C
:103D500057F8204CCDF804B0134432B2664647F809
:103D6000403C0093234603F019FC02B0BAF8061059
:103D7000B8F8342057F82C0CBAF804C082B057F8C1
:103D80003C3C314409B26FF30F03134447F83C3C09
:103D9000CDE9003B8346234657F84C0C57F8442C9A
:103DA00057F8388C60445242013012B200B2A0E0A1
:103DB00035F8043C92B2934200F0F18002B2BAF9B5
:103DC0000E30BAF8000038F822C0B3F1FF3FA1EB83
:103DD0000C0E40F3918008EB820157F8248C4E883A
:103DE000BAF80210B8F8342047F8446C82B057F89B
:103DF000584C4FF6FF733144604457F828BC47F8DD
:103E00004CEC6646013900B224EA030357F8204C13
:103E100009B2CDF804B013440FFA8EF247F8583CBB
:103E20000093234603F084FB02B0BAF80400B8F80C
:103E3000342057F82C1CBAF806C082B057F8543C0E
:103E4000304400B26FF30F03134447F8543CCDE9FC
:103E5000003B8B46234657F8441C57F84C2C57F828
:103E6000388C61445242013112B209B291E057F8E4
:103E7000248C47F844CCB8F834C082B057F8604C72
:103E80004FF6FF73114457F828BC00B232B201312B
:103E900024EA030309B2CDF804B003EB0C0457F88D
:103EA000203C47F8604C0094744603F077FB02B066
:103EB000BAF80610BAF80400B8F8342082B057F8FF
:103EC0005C3C3144204401306FF30F0300B21344D3
:103ED00047F85C3CCDE9003B57F8442C57F82CBC24
:103EE00057F8388C57F8203C11447242013112B215
:103EF00009B203F053FB4EE057F824BC08EB8202F2
:103F000047F844CCBAF802C05688BBF8343047F8BA
:103F10004C6C82B057F86C2C4FF6FF7408440CEBD5
:103F2000060176460130013922EA040400B209B2E2
:103F30000FFA8EF2234457F8284C47F86C3C009354
:103F400057F8203C019403F0F3FA02B0BAF80400E9
:103F5000BAF80610BBF8342057F8388C82B057F8FE
:103F6000683C30446FF30F03134447F8683CCDE9D5
:103F7000003457F84C2C57F8203C57F82CBC11440F
:103F800057F8442C01311044724209B2013012B288
:103F900000B203F0CDFA57E90D4602B0484609F1E8
:103FA000010904354C457FF491AE57F8641C9AF82A
:103FB00018200139002A53D008EB810100B2BAF968
:103FC00012204E8808EB800138F820B0BAF80000C3
:103FD0004C88BAF80210B2F1FF3F5844A6EB040532
:103FE000A0F1010073DD57F8246CB38E82B057F84E
:103FF000209C21442A4457F8288C009300B209B22F
:1040000012B24B46CDF8048003F0C8FA02B0BAF8F9
:104010001220BAF80400BAF80610B38E6DE902381F
:10402000214473E0BCF1000F08D0601870450EDC2D
:10403000B8F802000138A8F8020008E009EB010016
:10404000A84204DCB8F800000138A8F800000021FC
:104050000120002347F8441C002147F8481C9EE03B
:1040600002B238F82150BAF90E10BAF8000038F848
:10407000226008EB8202B1F1FF3FA5EB060456DD9A
:1040800057F8248CB2F80290BAF80230B8F834200D
:1040900082B02144009257F820BC304457F8285C85
:1040A0000AB203EB090100B201395B46019509B27E
:1040B00003F03EFA02B0BAF80E20BAF80610BAF8C9
:1040C0000400B8F834306DE90235304454E057F854
:1040D000248CB8F8343082B057F8209C31442A44FC
:1040E00057F8284C009300B209B212B24B46019423
:1040F00003F054FA02B0BAF81220BAF80400BAF881
:104100000610B8F834306DE90234314458442A447A
:1041100009B24B460130524200B212B203F03EFAED
:1041200002B057F8503C012057F8388C34E057F86B
:10413000246CB2F80290BAF80230B28E82B02144F8
:10414000009257F820BC284457F8288C0AB203EB99
:10415000090100B201395B46CDF8048009B203F0D1
:10416000E7F902B0BAF80E20BAF80610BAF804005F
:10417000B38E6DE9023828444944224400B25B46BC
:1041800057F8388C0131524209B212B203F0D0F91B
:1041900002B057F8503C012047F8440C18469AF8F2
:1041A000181000290CBFBAF90E20BAF9122057F8DE
:1041B00028BCB2F1FF3F03DD012247F84C2C08E098
:1041C00057F8442C524247F84C2C4FF6FF7247F8F0
:1041D000442CBAF8002000B20029A0F1010027F811
:1041E000122CBAF8022027F8142C00F0A58147F809
:1041F000540C08EB8000BAF80A4008F102080230BB
:1042000047F8500C4AF63C10C0F60100006847F829
:104210003C0C41F6C840C0F60100006847F82C0C81
:1042200098B2404247F8300C012047F8340CD5E0F2
:10423000BAF80A00844200F0D18037F8120C57F81F
:10424000481C47F85C6C002961D00026444600BF3A
:1042500034F8021C5B46084427F81C0C37F8141C81
:104260002288114427F81A1CBAF8082027F8161CCF
:1042700037F8121C57F82C5C1044C943084457F80F
:10428000241C27F8180C4FF6FF70898E29EA0000CD
:1042900000EB010957F8201CA7F11C004A46A8476B
:1042A0006EB334F8060C34F8021C081A57F8341CA4
:1042B000B0FA80F040090843C00720D157F8240C19
:1042C000BAF812C037F81A1C828E37F91C0C82B06B
:1042D00057F8403C4FF6FF75A1EB0C01CDF800B04C
:1042E00057F828BC09B223EA0505AB1857F8202C6B
:1042F0001D4647F8403C57F83C5CA84702B037F8E9
:10430000120C57F8301C013E0434B142A0D157F8CA
:10431000384CB4F800C037F814ECBAF808106288CA
:1043200047F8341C37F812BC57F8246CB18E82B0B1
:1043300057F8585C4FF6FF73604400B225EA030358
:1043400057F8205C0B4457F8441C47F8583C00933E
:1043500057F8283CAEEB0101114457F8342C019377
:104360002B4609B2ABEB020212B203F0E1F802B045
:1043700037F8120C57F8541C34F8211037F814ECA5
:1043800057F8502CBAF808C0128837F8123CB48E8F
:1043900082B0084457F85C6C57F84C1C57F828BC9E
:1043A00000B26FF30F0671441144ACEB03022644D4
:1043B00057F8284C2B4609B212B20096019403F02C
:1043C000B7F802B0BAF8080027F8120C0020BAF8C3
:1043D0000A4027F8144C47F8340C00BF504600F050
:1043E00056FA00287FF424AF37F8120C57F8481C0F
:1043F00000295AD04FF000094FF6FF7B38F8021C15
:10440000084427F81C0C37F8141CB8F80020114495
:1044100027F81A1CBAF8082027F8161C37F8121CBF
:104420001044401A57F8241C27F8180C25EA0B00F2
:10443000898E451857F8201C57E90B43A7F11C003B
:104440002A46A047B9F1000F25D038F8060C38F8F5
:10445000021C081A57F8341CB0FA80F040090843CF
:10446000C00718D157F8240CBAF8121037F81A3CC4
:10447000828E37F91C0C82B057F8284C26EA0B06BE
:10448000591A164457F8202C09B2009457F83C4C9E
:104490003346A04702B037F8120C57F8301CA9F188
:1044A000010908F104084945A8D157F8385C298862
:1044B00037F8142CBAF808C06B8837F812EC57F8A4
:1044C000248CB8F8344082B0084457F8441C57F89C
:1044D000209C57F8286C009400B2511A6FEA0C0225
:1044E0000196194472444B4609B212B203F020F807
:1044F00002B037F8120C57F8541C35F8211037F871
:10450000142C57F8503CBAF808C01B8837F812EC46
:10451000B8F834406DE90246084457F84C1C00B224
:1045200011440CF101021944A2EB0E024B4609B2F0
:1045300012B202F0FDFFA4E147F8540C08EB800032
:10454000BAF8086008F10204023047F8500C4AF645
:104550003C10C0F60100006847F83C0C41F6C8402A
:10456000C0F60100006847F82C0C98B2404247F8AA
:10457000300C012047F8340CD8E000BFBAF808002E
:10458000864200F0D38037F8120C57F8481C0029F7
:1045900063D04FF00008264636F8021C5B460844FC
:1045A00027F81C0C37F8141C328827F8180C501800
:1045B00027F81A0CBAF80A10084437F8141C57F8F0
:1045C0002C5CC943084457F8241C27F8160C4FF6F6
:1045D000FF70898E29EA000000EB010957F8201CC2
:1045E000A7F11C004A46A847B8F1000F2CD036F8B6
:1045F000040C3188081A57F8341CB0FA80F04009CE
:104600000843C00720D157F8241CBAF80EC037F869
:104610001C0C8A8E37F91A1C82B057F8403C4FF6B2
:10462000FF75A0EB0C00CDF800B057F828BC00B225
:1046300023EA0505AB1857F8202C1D4647F8403CE7
:1046400057F83C5CA84702B037F8120C57F8301CFA
:10465000A8F10108043641459ED157F8385CB5F8F9
:10466000008037F814ECBAF80A10B5F802B047F831
:10467000341C37F814CC57F8246CB38E82B057F83A
:10468000581C4FF6FF7221EA02020BEB0E011A448E
:1046900009B247F8582C009257F8282C019257F885
:1046A000442C801A57F8342C404457F8208CACEB3B
:1046B000020200B212B2434602F070FF02B037F8B5
:1046C000120C57F8541C35F8215037F814EC57F8F1
:1046D000501CBAF80AC0098837F8142CB38E82B07F
:1046E00057F85C6C7144ACEB020257F828BC09B275
:1046F00012B26FF30F061E4457F8283C47F85C6C63
:104700000096019357F84C3C18444346284400B2A5
:1047100002F044FF02B0BAF8086027F8126CBAF849
:104720000A0027F8140C002047F8340C504600F01B
:10473000AEF800287FF422AF37F8120C57F8481C67
:10474000002958D04FF000094FF6FF7B34F8021CC7
:10475000084427F81C0C37F8141C228827F8180C7A
:10476000501827F81A0CBAF80A10084437F8141C25
:10477000401A57F8241C27F8160C25EA0B00898EDE
:10478000451857F8201C57E90B63A7F11C002A466F
:10479000B047B9F1000F25D034F8040C2188081A6D
:1047A00057F8341CB0FA80F040090843C00719D10B
:1047B00057F8241CBAF80E0037F81C3C8A8E37F9DB
:1047C0001A1C82B057F8286C181A00B2009628EA12
:1047D0000B0606EB020857F8202C57F83C6C4346B2
:1047E000B04702B037F8120C57F8301CA9F1010994
:1047F00004344945AAD157F8385C298837F8142C75
:10480000BAF80AC06B8837F814EC57F8248CB8F85B
:10481000344082B0009457F8444C57F8209C57F825
:10482000286C001B0196084499186FEA0C024B464D
:10483000724400B209B212B202F0B0FE02B037F810
:10484000120C57F8541C35F8211037F814EC57F8AF
:10485000502CBAF80AC0128837F8143CB8F8344023
:104860006DE9024657F84C4C2044084402EB0E0117
:104870000CF10102D21A00B209B24B4612B202F098
:104880008DFE02B0A7F10C04A546BDE8F08F10B56F
:1048900001898288914205D1C2884389934204BF2D
:1048A000002010BDB0F91420B0F910C0C282B0F8D9
:1048B0000CE00FFA8EF35B429A42134605DDA2EB41
:1048C0000C038382C48921440181624506DA03EB2B
:1048D0000E018182418A428911444181012010BD2B
:1048E000B0B54AF63B31044626A300204622C0F666
:1048F000010107F021FF616811B1206800F062F842
:1049000040F25420C2F2000007F018FC78B394F88B
:10491000201001F0FB0184F82010D4E900CED4E986
:104920000231D4E90425C0E90425C0E90231C0E917
:1049300000CE04F1180300F1180C0ECB8CE80E0029
:1049400043681BB1026801691046984740F2F8209D
:10495000012113A35A22C2F2000001704AF63B3132
:104960000020C0F60101BDE8B04007F0E5BE4AF600
:104970003B3110A303204C22C0F6010107F0DCFEFE
:10498000FEE700BF616E696D6174696F6E206372CE
:104990006561746520737461727465640000000061
:1049A000616E696D6174696F6E20637265617465B3
:1049B000640000004F7574206F66206D656D6F7226
:1049C000792100002DE9F047054640F25420884641
:1049D000C2F2000007F08FFB38B340F2542640F2D9
:1049E000F82904464FF0000AC2F20006C2F200099C
:1049F00030462146274607F083FB04463868A84224
:104A000010D1B8F1000F02D0786840450AD1304685
:104A1000394607F0E8FB384607F050FF4FF0010A2F
:104A200089F800A0002CE3D101E04FF0000A0AF061
:104A30000100BDE8F08780B540F254202421C2F285
:104A4000000007F06FFB0AF0F3FD40F2147103223F
:104A50000023C2F20001086042F675702021C0F602
:104A60000000BDE880400AF019BCB0F91A10028BB2
:104A70008A420FBF4FF48061890291FBF2F189B243
:104A8000D0E90420801A484302EBA0207047891A1D
:104A90004FF47A7248BF49425143B1FBF0F04FF6F0
:104AA000FF71884238BF0146002908BF012188B242
:104AB0007047B0F90430B0F90010B0F90220B0F935
:104AC000060001300133591A801A4843704710B567
:104AD000B1F900C0B2F900E0F445C8BFE646A0F85D
:104AE00000E0B1F902C0B2F902309C45C8BF63468C
:104AF0004380B1F904C0B2F90440A445B8BF64468C
:104B00008480B1F90610B2F906209142B8BF0A4676
:104B1000C28000200021A645D8BF01219342D8BF02
:104B20000120084010BDB1F90020B0F900309342D7
:104B30000BDBB1F90220B0F90230934205DBB1F989
:104B40000420B0F90430934201DD00207047B0F931
:104B50000620B1F9061000208A42D8BF0120704714
:104B6000B1F90420B0F90030934213DCB1F9002010
:104B7000B0F9043093420DDBB1F90620B0F90230F0
:104B8000934207DCB1F90210B0F906008842A4BFD5
:104B90000120704700207047B1F90020B0F90030C3
:104BA0009A4209DBB0F904309A4205DCB1F90210EF
:104BB000B0F90220914201DA00207047B0F90620D6
:104BC00000209142D8BF01207047B1F900C0B2F96E
:104BD00000309C45B8BF63460380B1F902C0B2F90A
:104BE00002309C45B8BF63464380B1F904C0B2F9B6
:104BF00004309C45C8BF63468380B1F90610B2F902
:104C000006209142C8BF0A46C2807047DDF800C046
:104C1000A0F806C0838042800180704770B50D46C1
:104C20004AF6DA31044658A300203722C0F60101C3
:104C300007F082FD2046294608F050F9002853D09D
:104C400040F2D0260446C2F20006306818B9204669
:104C500008F048FB306040F2C426C2F2000630681B
:104C600018B9204608F00DFB306020460C2108F0F2
:104C700026F9002845D00646642045F28501B0801B
:104C80000020C0F60001306042F6F800C2F20000D9
:104C9000B060B07900F0FE00B071204608F04EFC24
:104CA00044F6AD512046C0F6000108F001FCB5B352
:104CB000284608F0F7FA418871808188B180018820
:104CC00031808168B160B179807901F0FE0100F036
:104CD00001000844B071204608F0D4FBB6F900107A
:104CE000204600F0B3F944E04AF6DA314AF60323ED
:104CF00003203B22C0F60101C0F6010307F01CFDB2
:104D0000FEE74AF6DA314AF6032303204322C0F6CF
:104D10000101C0F6010307F00FFD00BFFEE72046CA
:104D2000002108F0BDFB20466421102208F008FC99
:104D3000B6F90010204600F089F90AF059FC88B154
:104D40000546066D204608F0ADFA2046314608F0CB
:104D500031FC6D6D204608F0A5FA8560204608F00C
:104D600083FB06E042F6BC012046C2F2000108F0D7
:104D700021FC4AF6DA310AA301206922C0F60101BA
:104D800007F0DAFC204670BD6C765F6261722063CA
:104D900072656174652073746172746564000000EB
:104DA0006261722063726561746564002DE9F0438D
:104DB0008FB08946064682B1012A2CD0022A40F0E3
:104DC000DD8040F2C42049460222C2F2000003689E
:104DD00030460FB0BDE8F0431847304608F072FA8D
:104DE0008046304608F00FFBC8B3304608F05AFA48
:104DF000304608F079FA6F460146384609F042FB22
:104E0000002049463A464346ADF80C0006F1100032
:104E100002F0B8FF2CE0304608F0F5FA002800F068
:104E2000AD80304608F04EFA0546304608F03AFAB2
:104E3000304608F059FA6F460146384609F022FB21
:104E4000002049463A462B46ADF812009DF81C005A
:104E500040F001008DF81C0006F110008CE040F2DB
:104E6000C42049460022C2F2000003683046984739
:104E7000304608F017FA074640883988814204BF57
:104E8000B8795FEAC07079D0304608F00BFA8268D2
:104E9000746935690123108B03EB1443211AADF8B3
:104EA000041041192D0CADF8001045EA04450844E2
:104EB000D68A3544C6EB144C2E44ADF806C0ADF886
:104EC00002509B1B1EB2631C181AB7F9003005B2C2
:104ED000B7F90200B542A3EB000426DA04FB06F39F
:104EE000B7F90440211A012C93FBF1F3ACEB030357
:104EF00003F10105ADF802503BDBB0F1FF3F38DCB8
:104F0000BB7913F0010334D070432FB2404290FBC1
:104F1000F1F0ACEB000000B28742A6BFADF8020092
:104F2000ADF80670ADF8060023E004FB05F6B7F90E
:104F30000440231A012C96FBF3F60E44A6F1010659
:104F4000ADF8046015DBB0F1FF3F12DCBF7917F05C
:104F500001070ED0684337B2404290FBF3F008449B
:104F600000B28742CEBFADF80000ADF80400ADF846
:104F7000007068464946434602F004FF01200FB026
:104F8000BDE8F08380B508F08DF9B0F9040080BD6C
:104F900080B508F087F9B0F9020080BDB0B50D46C4
:104FA000044608F07FF9012D04BF8068B0BD25B923
:104FB0002046BDE8B04008F097B90020B0BD80B5EC
:104FC00008F070F9B0F9000080BD2DE9F0411746F6
:104FD0000D4680468CB208F065F906464088A0422E
:104FE00005D1B188B8B2814208BFBDE8F0817580B3
:104FF000B780B6F90000B84205DD40463946378033
:1050000000F024F8308800B2A84204DA404629466D
:10501000358000F01BF84046BDE8F04108F0A8B923
:1050200070B514460E46054608F03CF9012E06D030
:105030005EB928462146BDE8704008F0BBBA8460DE
:105040002846BDE8704008F00FBA70BDB0B5044600
:105050008DB208F027F90188A94208BFB0BDB0F9A8
:10506000043029B2B0F902208B42B8BF9DB229B2F8
:105070009142B8BF154605802046BDE8B04008F013
:1050800077B90000F0B581B0064640F2D020154651
:105090000F46C2F2000003683046984704460128D4
:1050A0001ED1042F0CD0062F1AD10020002100BFE2
:1050B00055F8202082B1013101300629F8D90CE0E1
:1050C000304608F0EFF88068B6F93410B0F91200F5
:1050D0008842C8BFB08603E0014603A045F821001E
:1050E000204601B0F0BD00BF6C765F6261720000C7
:1050F0002DE9F04381B089464AF6F331804684A316
:1051000000204A22C0F6010107F016FB404649463E
:1051100001F080FC002800F0808040F2D425044695
:10512000C2F20005286818B9204608F0DBF82860AC
:1051300040F2BC25C2F20005286818B9204608F0E4
:10514000A0F828602046342107F0B9FE002872D06C
:10515000054642F2187142F2CC7242F6080342F25E
:10516000547600202F46C2F20001C2F20002C2F2C1
:105170000003C2F2000647F8040FC7E90100F86017
:1051800087F82400C7E90563C7E907217885C7F8D0
:10519000260045F291613E4697F82C00C0F60001CA
:1051A00000F0FC0087F82C0042F29070C2F2000080
:1051B00046F8100F204608F0C1F945F23931204673
:1051C000C0F6000108F074F9B9F1000F41D048466B
:1051D00008F068F890F8281085F8281095F8301035
:1051E00090F8302001F0FE0102F00102114485F830
:1051F0003010418D6985818DA985C18DE985051D99
:105200002ECD2EC700F114078ECF406A86E88E009F
:105210003061204608F036F96CE04AF6F3314AF680
:10522000032303204F22C0F60101C0F6010307F05B
:1052300083FA00BFFEE74AF6F3314AF60323032060
:105240005722C0F60101C0F6010307F075FA00BF4E
:10525000FEE7B8F1000F03D02046012102F007F865
:105260002046012108F01CF90AF0C2F9F0B3054606
:10527000C668204608F016F840F8146F017D50F813
:105280002110204608F096F92E69204608F00AF809
:10529000866190F8281000EB81004169204608F0F3
:1052A00089F96E69204607F0FDFFC66190F8281065
:1052B00000EB81004169204608F07CF9AE69204688
:1052C00007F0F0FF066290F8281000EB81004169BA
:1052D000204608F06FF9ED69204607F0E3FF4562CC
:1052E00090F8281000EB8100416900E03168204609
:1052F00008F060F94AF6F3310BA301209822C0F6BA
:10530000010107F019FA204601B0BDE8F08300BFA3
:10531000627574746F6E2063726561746520737456
:105320006172746564000000627574746F6E20634E
:1053300072656174656400002DE9F04F93B0022A34
:1053400017D00C460646012A15D0002A40F00481E9
:1053500040F2C450C2F200000068B04216D040F2E1
:10536000BC2021460022C2F2000003683046984764
:10537000F2E00025F1E040F2BC20214601220125A7
:10538000C2F20000036830469847E6E0304607F076
:1053900099FF8246304607F085FF40F2C851C2F2BD
:1053A0000001097871B340F2C05800F1140500F112
:1053B0001C070DF11009C2F20008284698F80010E9
:1053C000002918BF38460168484609F05BF840F2EA
:1053D000CF5198F8000040F2BE52C2F20001C2F272
:1053E0000002002808BF2F460978138838684A460B
:1053F00055F8211009F015FB06F1100021464A4628
:105400005346A7E040F2C05100F1140800F11C0B14
:1054100004ADC2F2000140460978002918BF584681
:105420000168284609F02EF840F2CF505346CDF8D7
:1054300004A006F1100A21462A46C2F200000078B4
:1054400058F82000408AADF82200504602F09AFC3D
:10545000304607F07BFF8146304607F027FF0546C0
:1054600040F2BE5040F2CA5CC2F200002946C2F2CD
:10547000000C05EBD572B0F900008028A8BF802091
:10548000A945C8BF4946BCF80230778A01EBD17103
:10549000C3EB520249103A444143378ABCF80060DA
:1054A00012B2424303EBD21202EBD113A2EBD112A0
:1054B000ADF80E3009EBD973C6EB53033B441BB276
:1054C000584306EBD01002AE00EBD113A0EBD11085
:1054D0005146ADF80C30ADF80A20ADF80800304662
:1054E0003246FFF7F4FA40F2CF500DF1100AC2F243
:1054F0000000007858F8201040F2BE50C2F20000C0
:10550000B0F90070504608F0BDFF40F2C0500023D3
:10551000C2F200000078002818BFD846D8F8000072
:10552000A945B0F90600B8BF4D46B7F1800205EBBA
:10553000D571ADF81C30D8BF1A46019BA0EB6100B5
:1055400012B250435246C00900EB61002146ADF84B
:105550001600304602F016FC0125284613B0BDE8BF
:10556000F08F80B507F09EFE90F8280080BD30B126
:1055700040F2BE52C2F20002118007F0F9BE70473D
:1055800070B58AB040F2C455C2F20005286807F031
:1055900089FE0446286807F085FE90F82860286890
:1055A00007F0E6FE40F2CE500121C2F20000017089
:1055B00046F00200022804BF94F830005FEAC07091
:1055C00003D0002028600AB070BD40F2C856C2F275
:1055D000000630780028F4D100204FF48071069046
:1055E000059144F66B21C0F60001049145F26F511C
:1055F000C0F60001029145F28151C0F6000103910D
:1056000029680191A18D4942ADF81E10E18DADF8D8
:105610001C108DF82400089001A8FFF761F9012003
:105620003070D0E7B0B50D46044607F03BFE90F869
:105630002810A94208BFB0BD80F8285000EB8500B3
:1056400041692046BDE8B04007F0B4BF70B51546CB
:105650000E46044607F026FE042E9CBF00EB860192
:105660004D6190F8281000EB810041692046BDE8AB
:10567000704007F09FBF10B50C4607F013FE90F87E
:10568000301001F0FE01214480F8301010BD000000
:105690002DE9F04389B0044640F2D42017460D4668
:1056A000C2F200000368204698470646012840F0F1
:1056B000BE80204607F0F6FD8046204607F0F2FD4A
:1056C00090F82890204607F0EDFD0126122D00F2FB
:1056D000AE80DFE805F00AACACACACAC1CAC293851
:1056E0003D466170ACACACAC7A0040F2C455C2F23D
:1056F00000052868A04240F0998045F26F5120468D
:10570000C0F60001FFF75EF9002028608EE000205F
:10571000002100BF57F82020002A00F07E800131D0
:1057200001300629F6D979E098F82800022800F01F
:105730008280002840F08F80204601210125FFF75C
:1057400071FF00207DE0384605F062FD00286DD035
:1057500098F82800032865D0012867D12046002149
:1057600062E090F83050384605F052FD002849D1EB
:1057700098F83000800745D498F8281005F001000B
:10578000032900F04A81012940F04E81002800F0F1
:1057900047812046022145E10126B9F1040F46D098
:1057A000D8F80C10002942D098F8300040F00200E0
:1057B00088F83000C5E00126B9F1040F37D0D8F8D9
:1057C0001010002940F0BD8031E0387801260A38F9
:1057D0000A282CD8DFE810F00E012B002B002B003C
:1057E0002B002B002B000B009B000B009B00204686
:1057F00007F058FD90F83000C00700F09380204675
:1058000002218DE098F82800032800F09F800128ED
:1058100040F0A080204600219AE001469AA047F877
:10582000210003E020460221FFF7FCFE012630465E
:1058300009B0BDE8F083204603210325FFF7F2FEFF
:10584000012040F2CF51C2F200010D7040F2C05170
:10585000C2F20001087098F8300040F2C455C2F25C
:10586000000500F0FD0088F83000286860B1A04213
:105870000AD045F26F51C0F60001FFF7A3F828687F
:1058800007F076FD00202860B8F82A0098B340F2AF
:10589000C85000262C60C2F20000067040F2CE50C4
:1058A000C2F20000067005F089FC40F2CA51C2F253
:1058B000000105F089FC4FF48070CDE9046044F6E6
:1058C0006B200094C0F60000039045F26F50C0F6C4
:1058D0000000019045F28150ADF81A60C0F600005A
:1058E0000290B8F82A008DF820600796ADF81800ED
:1058F0006846FEF7F5FF0126B9F1040F97D0D8F8F6
:105900000810002993D02046884706468FE7204696
:1059100007F0C8FC90F83000C00703D020460021F3
:10592000FFF780FED8F8040000283FF47FAF204640
:1059300007F0B8FC90F8280004283FF477AFD8F8B7
:105940000410204609B0BDE8F04308472046022174
:10595000FFF768FE012698F83000C00742D140F2F8
:10596000CE50C2F20000007801287FF460AFB8F892
:105970002E0000283FF45BAF40F2C85040F2C455FF
:105980000121C2F20000C2F2000501702C6005F096
:1059900015FC40F2CA51C2F2000105F015FC0020CE
:1059A0004FF480710590049144F66B21C0F600011C
:1059B000039145F26F51C0F60001019145F281510A
:1059C000ADF81A00C0F60001029129680091B8F8FC
:1059D0002E10ADF818108DF8200007906846FEF7DD
:1059E0007FFF24E740F2CF5198F82800C2F200016F
:1059F00008701CE798F83000800721D4204607F093
:105A000051FC90F83000C0071CD1A9F10200022817
:105A10001FD3B9F1010F1FD922E000283FF4B9AE1E
:105A200020460021FFF7FEFD0126B9F1040F92D0B8
:105A3000D8F8041000298ED02046884706468AE709
:105A4000012618E0A9F10200022805D3B9F1010FDF
:105A500006D82046022101E020460021FFF7E2FDA2
:105A60000126B9F1040F06D0D8F8041019B1204668
:105A70008847064630B198F8300000F0FD0088F8FD
:105A80003000D4E60026D2E66C765F62746E0000C9
:105A90002DE9F04381B00D4604467AB1012A37D092
:105AA000022A3ED140F2B82029460222C2F200006A
:105AB0000368204601B0BDE8F0431847204607F0D0
:105AC00013FC8046204607F00BFC074607F00CFC51
:105AD0000646384607F0E8FB8146307FC00701D113
