:020000040800F2
:10000000F87A0020450100089B230008531C0008D3
:1000100099230008A10700084126000800000000FD
:10002000000000000000000000000000C3230008E2
:10003000B107000800000000C1230008C523000824
:100040005F0100085F0100085F0100085F01000810
:100050005F0100085F0100085F0100085F01000800
:100060005F0100085F0100085F010008A5070008A4
:100070005F0100085F0100085F0100085F010008E0
:100080005F0100085F010008510700085F010008D8
:100090005F0100085F0100085F0100085F010008C0
:1000A0005F0100085F0100085F0100085F010008B0
:1000B000792400085F0100085F0100085F01000863
:1000C0005F0100085F0100085F0100085F01000890
:1000D0005F010008FD2500085F0100085F010008BE
:1000E0005F0100085F0100085F0100085F01000870
:1000F0005F0100085F0100085F0100085F01000860
:100100005F0100085F0100085F0100085F0100084F
:100110005F0100085F0100085F0100085F0100083F
:100120005F0100085F0100085F0100085F0100082F
:10013000DFF80CD000F07CFA0048004735E70008F3
:10014000F87A00200648804706480047FEE7FEE7A9
:10015000FEE7FEE7FEE7FEE7FEE7FEE7FEE7FEE777
:100160002D24000831010008202A04DB203A21FA5E
:1001700002F00021704721FA02F3D040C2F12002C0
:10018000914008431946704740EA01039B0703D09A
:1001900009E008C9121F08C0042AFAD203E011F8C6
:1001A000013B00F8013B521EF9D27047D2B201E088
:1001B00000F8012B491EFBD270470022F6E710B56C
:1001C00013460A4604461946FFF7F0FF204610BDC5
:1001D000421C10F8011B0029FBD1801A704710B592
:1001E000002200E0521C835C8C5CA34201D1002BF6
:1001F000F8D1D8B2E1B2401A10BD034611F8012B74
:1002000000F8012B002AF9D11846704700F000428F
:1002100030F000400AD0C10D01F56071C0F3160046
:1002200042EA0151C20840071143704700200146CD
:10023000704730B50B46014600202022012409E01A
:1002400021FA02F59D4205D303FA02F5491B04FA8F
:1002500002F52844151EA2F10102F1DC30BD2DE9A2
:10026000F05F0546002092469B468846064681463A
:1002700040241BE02846414647462246FFF774FFCC
:1002800053465A46C01A914110D311461846224689
:1002900000F0E0F92D1A67EB01084F4622460120D5
:1002A000002100F0D7F917EB00094E41201EA4F100
:1002B0000104DFDC484631462A464346BDE8F09F4C
:1002C0002DE9FE4F804681EA0300C00F0C460090E6
:1002D00021F0004123F00045B8EB0200A94105D20E
:1002E0004046214690461C460B46024623F00040FD
:1002F000104347D0270DC7F30A00C3F30A510290F9
:10030000401A019040286BDAC3F3130040F4801BBD
:100310000098924620B10023D2EB030A63EB0B0B4B
:1003200001985946C0F14002504600F093F9064644
:100330000D4650465946019A00F09BF910EB080013
:100340006141002487EA115284EAE7731A4340D0DE
:10035000009A62B3019A012A4FEA075215DC001B8A
:1003600061EB02014FF0004202EA0752CDE9004280
:10037000001C41F5801132462B4600F09BF903B07A
:10038000BDE8F08F40462146F9E7001B61EB020112
:10039000001C41F5801300185B412018A2F50017DE
:1003A00047EB030140EAD570B6196D4111E06D08C5
:1003B0004FEA360645EAC0754FEA0752001B61EB6B
:1003C0000201001C41F5801149084FEA3000001974
:1003D000514132462B4603B0BDE8F04F00F05BB907
:1003E0000098012240000023D0EB020263EBE0738F
:1003F000009821464FEAE074B8EB000061EB04017D
:10040000E9E783F000435BE781F0004158E72DE91D
:10041000FE4F81EA030404F0004421F000410094FF
:100420004FF0000B23F0004350EA01045ED052EA83
:1004300003045BD0C3F30A54C1F30A552C44A4F25D
:10044000F3340194A0FB0254C1F3130141F4801171
:10045000C3F3130343F4801301FB024400FB034E78
:10046000840A970A44EA815447EA8357A4FB076841
:1004700002958D0A05FB07854FEA932C04FB0C546B
:100480002705029D4FEA065847EA1637B5EB0805DF
:100490006EEB070C870E920E47EA811742EA831231
:1004A000A7FB0201B6EB0B0164EB00042B0D43EA42
:1004B0000C335E1844EB1C50DA465146E7FB020150
:1004C000C5F313044FEA0B3343EA14534FEA0432E3
:1004D000019C43EA0603A4F10C040294009CCDE9BC
:1004E00000B400F0E7F803B0BDE8F08F002001464B
:1004F000F9E72DE9F04D81EA030404F0004B21F007
:10050000004514464FF0000A23F0004150EA05026E
:1005100020D054EA01021DD0C5F30A570246C5F3A4
:100520001303C1F31300C1F30A5640F4801543F4DA
:100530008013A7EB0608101BD64608F2FD3873EBB4
:10054000050002D308F1010801E092185B41B8F1FF
:10055000000F03DA00200146BDE8F08D00204FF4C3
:100560008011064684460EE0171B73EB050705D382
:10057000121B63EB050306434CEA010C49084FEAE2
:10058000300092185B4150EA0107EDD152EA0300B6
:1005900012D082EA040083EA0501084305D0101B4B
:1005A000AB4106D20122002306E000224FF00043B7
:1005B00002E06FF0010253101AEB06004CEB0851F9
:1005C00010EB0A0041EB0B01BDE8F04D00F063B801
:1005D000C1F30A52C1F3130140F2FF3341F4801119
:1005E0009A4202DA00200146704740F233439A42B1
:1005F000A2F2334202DC5242FFF7B6BD00F02AB845
:1006000030B5041E71F1000404DB4FF00044404299
:1006100064EB0101141E73F1000405DB1C464FF06E
:100620000043524263EB0403994208BF904230BD3D
:10063000064C074D06E0E06840F0010394E807002F
:1006400098471034AC42F6D3FFF776FDB88801081E
:10065000D8880108202A04DB203A00FA02F10020A1
:1006600070479140C2F1200320FA03F319439040F0
:100670007047202A06DBCB17203A41FA02F043EA02
:10068000E07306E041FA02F3D040C2F1200291404B
:1006900008431946704710B5141E73F1000408DAB8
:1006A000401C41F1000192185B411A4301D120F036
:1006B000010010BD2DE9F04D92469B4611B1B1FAF3
:1006C00081F202E0B0FA80F220329046FFF7C2FFDA
:1006D00004460F4640EA0A0041EA0B0153465A46D7
:1006E000084313D0114653EA010019D0C8F1400263
:1006F0005046FFF739FD05460E46504659464246DC
:10070000FFF7A8FF084305D0012004E02046394642
:10071000BDE8F08D0020054346EAE0762C433743E0
:100720000A986305E40AA0EB08000022FD0A44EAE7
:1007300047540A3002D500200146E9E701051019A7
:100740006941DDE9084500196941BDE8F04DA2E7BE
:10075000014800F03AB900BFF0090020B0B50446E6
:1007600000688168C90719D0816821F001018160A2
:1007700000F0FAFC054620688068C0070ED000F043
:10078000F3FC401B0328F6D3A06A40F01000A062DF
:10079000E06A40F00100E0620120B0BD0020B0BD81
:1007A000FEE70000014800F0DBBA00BF200A00208D
:1007B00070477047B3F5804F16D1B0B550F822306E
:1007C0000C4C03EA040CD1E90043D1E902E5896944
:1007D00044EA0C0444EA031343EA0E23194341EAB2
:1007E0000541BDE8B04001E06FF0704140F82210D3
:1007F000002070470000F0CF2DE9F0430A6801F1B6
:10080000100750F8223023F0010340F82230184B33
:10081000D1E900CED1E90289F0CF50F82C20B8F10F
:10082000080F02EA03024EEA080343EA090343EA17
:10083000040343EA050343EA060343EA0703D1E955
:100840000876D1E90A54096B43EA070343EA060331
:1008500043EA050343EA040341EA030141EA0201D2
:1008600008BF41F0400140F82C100020BDE8F083A3
:100870008100F7FFF0B500EB820001F10C06DA4FC2
:10088000426891E8085070CE896907EB055502F07F
:1008900040421A4342EA0C1242EA0E2242EA044261
:1008A0002A43114306F1FE0241EA02614160002041
:1008B000F0BD00BF7047000078B50022009290F8AC
:1008C0002420012A01D102215BE0012280F82420AA
:1008D0004B68062B08D8D0F800C003EB83035D1FDC
:1008E000624652F8344F11E0D0F800C00C2B62463B
:1008F00006D852F8304F03EB8303A3F1230505E03C
:1009000003EB830352F82C4FA3F141050B681F261C
:1009100003FA05FE06FA05F5092B24EA05044EEA5A
:10092000040616601CD903EB4306DCF80C2089682A
:1009300007251E3EB14005FA06F6B2431143CCF836
:100940000C1023F00101102917D11C49A1F1080254
:10095000944519D0816A41F02001816201210DE0A6
:1009600003EB43020723DCF810608968934026EA12
:10097000030391401943CCF810100021002280F8A5
:100980002420084601B070BD0A681202F5D40A6836
:10099000102B42F400020A60EFD10949094A0968A4
:1009A000B1FBF2F101EB8101490001E0009901394D
:1009B000009100990029F9D1DFE700BF0824014028
:1009C0004000002040420F00704710B50446006808
:1009D0004168890644BF01685FEA817119D44168A2
:1009E000090644BF01685FEA417138D4416849068D
:1009F0000ED50068C00708BF10BDA06A40F4803063
:100A0000A062204600F0F4F820686FF00101016058
:100A100010BDA16AC9065EBFA16A41F40071A1625E
:100A2000816801F46021B1F5602F10D1E16871B9DE
:100A3000416821F020014160A06A20F48070A0622A
:100A4000A06AC0045EBFA06A40F00100A062204618
:100A5000FFF7BAFF20686FF012010160BFE7A16ADB
:100A6000C9065EBFA16A41F40051A162816801F428
:100A7000E041B1F5E04F0FD1416821F080014160C4
:100A8000A06A20F48050A062A06AC0055EBFA06A80
:100A900040F00100A0620BE04168490508D481687C
:100AA00001F46021B1F5602F02D1E1680029E3D0A3
:100AB0002046FFF7FFFE20686FF00C01016095E70C
:100AC000002844D02DE9F0418046044658F8280F0C
:100AD00030B9002084F82400E062204600F08AF853
:100AE0002046FFF73BFEA26AA16A90BB12F01000FD
:100AF0002FD141F2021021EA00000230A062D4E9B5
:100B0000000CD4E90221531EB2F5807FB3FA83F3BF
:100B10004FEA5315134618BF2B02304DE669454086
:100B200086F440272F4308BF4FF400264CEA4107C4
:100B300047EA060C6769012F16D171B1A16A41F02D
:100B40002001A162E16A41F00101E1620CE00120B3
:100B5000704741F0100101203BE0A169204D05EBF9
:100B60004131194341F400634168B2F5807F21F4BB
:100B7000694141EA03011B4B4160816801EA0301BD
:100B800041EA0C01816001D0012A04D12169164A91
:100B900002EB015100E00021C26A22F4700211430D
:100BA000C162124980680840604506D100200122D8
:100BB000E062A16A62F301010BE0A06A40F010005C
:100BC00020F00200A06254F82C0F40F00101012037
:100BD000A046C8F80010BDE8F08100BF003C01400D
:100BE00000E0FFFFFDF7E1FF0000F0FFFE0E1FFF3A
:100BF00070470000F0B585B0002604462348CDE9D3
:100C00000366CDE90166226800F5E0518A423BD1D6
:100C10001F490A6842F400720A600A6802F400720E
:100C20000092009A0A6842F004020A60096801F022
:100C3000040100910099032102910F21019101A962
:100C400000F0C0F9134DB74F80204FF4005C202115
:100C50004FF400624FF40073C5E90076C5E9026005
:100C60002846C5E90432C5E9061C00F06FF908B151
:100C7000FFF79FFD12200021002225626C6200F028
:100C8000DBFA122000F0CCFA05B0F0BD00080140FC
:100C900018100240200A002090F82110022919D1D2
:100CA0000268116821F00E011160116821F0010144
:100CB00011609B4901F17C039A420FD9A04B9A42E3
:100CC00024D0A04B9A4223D09F4B9A4222D14FF47A
:100CD000807327E00421816301207047914B9A4281
:100CE00026D0914B9A4225D0904B9A4224D0904BDB
:100CF0009A4224D08F4B9A4217D08F4B9A4221D0E0
:100D00008E4B9A4211D14FF080721DE0012309E011
:100D1000102307E001F5886C4FF48033624508BF6B
:100D20004FF48053C1F800340FE04FF480320BE0F1
:100D3000012209E0102207E04FF4807204E04FF432
:100D4000805201E04FF480120A604FF480710184F8
:100D5000416B19B180B58847002080BD00207047E5
:100D600010B5D0E90FC3DCF80020D0F800E0DEF8C1
:100D700000104C071ED504249C4014401AD0DEF805
:100D80000010674A89065EBFDEF8001021F00401FA
:100D9000CEF8001002F17C018E452FD968498E45AE
:100DA00074D068498E4573D067498E4572D14FF42F
:100DB000806177E08C0739D502249C40144035D0FF
:100DC000DEF80010890608D4DEF8001021F00A01D0
:100DD000CEF80010012180F82110514A02F17C0167
:100DE0008E453BD956498E4562D056498E4561D0D5
:100DF00055498E4560D14FF4007165E049498E45F3
:100E000065D049498E456DD048498E456CD04849DA
:100E10008E455ED047498E4547D047498E455BD0C9
:100E200046498E4541D14FF080615FE0090775D595
:100E300008219940114008BF10BDDEF8001021F0D4
:100E40000E01CEF80010012101FA03F2CCF80420C3
:100E500081634FF480710184016B5BE031498E4501
:100E600047D031498E4546D030498E4545D030492E
:100E70008E4545D02F498E4531D02F498E4542D0E1
:100E80002E498E452BD14FF000713EE0042109E040
:100E9000402107E002F588634FF480219E4508BF9A
:100EA0004FF48041C2F8001421E04FF480211DE08E
:100EB000022109E0202107E002F588634FF40031A8
:100EC0009E4508BF4FF40051C2F800141EE00421F3
:100ED0000CE04FF4804109E04FF4800106E04FF44C
:100EE000003112E0402101E04FF480611160C16ADD
:100EF00010E0022109E0202107E04FF4007104E036
:100F00004FF4005101E04FF400111160002180F80E
:100F10002010816A11B1BDE81040084710BD00BF24
:100F200004000240080002401C0002403000024061
:100F300044000240580002406C0002408000024021
:100F4000080402401C0402403004024090B310B573
:100F50001A49036801F108029342194A38BFA1F502
:100F6000806138BF02F5806203EB020C1422BCFBE7
:100F7000F2F29200C0E90F1243F6F072196821EA0A
:100F8000020CD0E90121D0E903E442EA0C0211434A
:100F9000426941EA0E012143114382691143C2694A
:100FA00011434FF480721960002181630284BDE80F
:100FB000104000E001210846704700BF00040240D5
:100FC000F8FBFDBF2DE9FC4F81465C4806234FF03E
:100FD00001084FF00F0E4FF0000A8145584808BF36
:100FE000052348444FEAB022052A38BF4FEAB02310
:100FF000009300220023102A08BFBDE8FC8F0C6874
:1010000008FA02F73C4200F096804D68032D16D98D
:10101000112D26D0122D28D04C48854213D04C4893
:10102000854210D04B4885420DD04B4885420AD0AE
:101030004A48854207D04A48854204D022E0DFE88A
:1010400005F002181B1F8C6844B1012C14BFC9F8AD
:101050001470C9F810704FF0080A13E04FF0040A3A
:1010600010E0CC6804F1040A0CE0CC6804F10C0A2E
:1010700008E0D1F80CA005E0CC6804F1080A01E012
:101080004FF0000A1C464846082A28BF203C28BFCB
:10109000043006680EFA04F50AFA04F426EA050597
:1010A0002C430460C879C00645D55B48254E22F024
:1010B000030504460068B346354440F00100206053
:1010C000206800F00100019003F00C00019E0EFA70
:1010D00000F4244EB446AE5926EA0404009E06FAF3
:1010E00000F0204345F80C004D68E803DBF80000F1
:1010F00054BF20EA070440EA0704CBF80040A803E5
:10110000DBF8040054BF20EA070440EA0704CBF8E8
:101110000440E802DBF8080054BF20EA070440EA74
:101120000704CBF80840A80207480446006854BFEB
:10113000B84338432060043301325CE7001C0140AF
:1011400000F8FEBF000401400C0401400000111033
:1011500000001210000021100000221000003110C9
:101160000000321008FCFFFF05480068704700BF10
:101170001A48034900780A6810440860704700BFA5
:10118000F036002080B5D348016841F010010160BD
:10119000032000F06FF8002000F004F800F020F8C1
:1011A000002080BD70B50D4E04464FF47A71307842
:1011B000B1FBF0F0D3490968B1FBF0F000F0BAFBE5
:1011C00001250F2C08D838B94FF0FF3021460022F6
:1011D000002500F031F87460284670BD2C00002016
:1011E00082B00D480222016841F0010101600168EE
:1011F00001F0010101910199416841F08051416084
:10120000406800F08050009000980448016862F344
:101210001A61016002B070471810024004000140DA
:1012200000F01F010122400902FA01F1014A42F8CF
:101230002010704700E100E080B5144B1B68C3F339
:10124000022CBCF1030E8CF007034FF0FF3C38BFBB
:101250004FF0000E042B28BF04230CFA03F399432C
:101260000CFA0EF301FA0EF19A431143BDE88040E7
:1012700001F094B805494FF6FF030A681A4060F37D
:101280000A22034810430860704700BF0CED00E0DD
:101290000000FA052DE9FC4104460078A94EC0077C
:1012A00056D0B069C0000BD4B0694FF0010840F0CF
:1012B0008050B061B06900F080500190019801E069
:1012C0004FF000082D4F3868C00510D4386840F43E
:1012D00080703860FFF748FF05463868C00506D4BF
:1012E000FFF742FF401B6428F7D9032042E0F06972
:1012F00010F440701ED0616801F44071884219D02A
:101300001F49F06901220A6000220A6020F440713E
:10131000C007F1610ED0FFF727FF054641F288377D
:10132000F069800706D4FFF71FFF411B0320B94275
:10133000F6D91FE0F0696168B8F1000F20F4407041
:1013400040EA0100F0611EBFB06920F08050B0613A
:101350002068810705D53168A26821F44041114316
:101360003160C00605D53068616920F4800008430B
:101370003060002002B0BDE8F08100BF0070004086
:10138000400442422DE9F8430D465249044608689C
:1013900000F00700A84209D2086820F0070028439F
:1013A0000860086800F00700A84253D12068654F24
:1013B0008946810711D5410742BF396841F4E06190
:1013C0003960010742BF396841F4605139603968BA
:1013D000A26821F0F00111433960C00733D1D9F878
:1013E000000000F00700A8420CD9D9F8000020F056
:1013F00007002843C9F80000D9F8000000F00700F2
:10140000A84227D12068410705D53968E26821F450
:10141000E06111433960000706D53868216920F47E
:10142000605040EAC100386000F070F839682A4A1C
:101430000024C1F30311515CC84032490860002008
:10144000FFF7B0FE07E06068012808D157F8041CD8
:1014500089030DD40124204601B0BDE8F08357F87C
:10146000041C022802D18901F4D501E08907F1D5D5
:10147000396821F0030108433860FFF775FE06461E
:10148000606841F2883801280CD0022815D13868EC
:1014900000F00C000828A2D0FFF766FE801B404534
:1014A000F5D914E0386800F00C00042897D0FFF755
:1014B0005BFE801B4045F5D909E0386810F00C0F41
:1014C0003FF48DAFFFF750FE801B4045F5D9032454
:1014D000C1E700BF0020024064F80008DE48194957
:1014E000094A00680968C1F30221515CC84070478D
:1014F000D9481449044A00680968C1F3C221515C03
:10150000C84070474000002074F8000810B50D4C2A
:101510000D48226802F00C03082B18BF10BDC2F35F
:1015200083430AA1CB5CD10302D40D48584310BDBC
:1015300021680AA25843C1F34041515CB0FBF1F06D
:1015400010BD00BF0410024000127A00020304051F
:10155000060708090A0B0C0D0E0F101001020000FF
:1015600000093D002DE9FC4104460078B84EC00753
:1015700049D0706800F00C00042817D0706800F0A3
:101580000C00082802D17068C0030FD4606898B1BD
:10159000B0F5803F06D03168B0F5A02F20D141F4DE
:1015A00080203060306840F480301FE03068800375
:1015B00029D5606838BB07E1306820F4803030609E
:1015C000306820F480203060FFF7CEFD054630689B
:1015D000800318D5FFF7C8FD401B6428F7D9E2E067
:1015E00021F480303060306820F480203060FFF7D4
:1015F000BBFD05463068800305D4FFF7B5FD401BF1
:101600006428F7D9CFE0207880072BD5706810F0D8
:101610000C0F07D0706800F00C00082809D1706822
:10162000C00306D43068800715D52069012812D080
:10163000CAE02169874800297CD001210160FFF7B9
:1016400093FD05463068800705D4FFF78DFD401BEC
:101650000228F7D9A7E03068616920F0F80040EA75
:10166000C1003060207800072ED5A06978B1794894
:101670000121C0F88014FFF777FD0546706A8007E6
:1016800015D4FFF771FD401B0228F7D98BE0714894
:101690000021C0F88014FFF767FD0546706A8007D7
:1016A00012D5FFF761FD401B0228F7D97BE06A489D
:1016B0004FF4FA510068B0FBF1F0019000BF0198BF
:1016C000411E00280191F9D12078400774D5F069B6
:1016D000C0000BD4F0694FF0010840F08050F06179
:1016E000F06900F080500090009801E04FF0000891
:1016F0005A4F3868C0050FD4386840F4807038609D
:10170000FFF732FD05463868C00505D4FFF72CFD0C
:10171000401B6428F7D946E0E068D0B1012805D025
:10172000316A05282BD141F004003062306A40F064
:1017300001002AE000210160FFF716FD0546306830
:1017400080077FF58FAFFFF70FFD401B0228F6D90A
:1017500029E0306A20F001003062306A20F0040095
:101760003062FFF701FD054641F28837306A800795
:101770001BD5FFF7F9FC401BB842F7D913E021F065
:1017800001003062306A20F004003062FFF7ECFCA8
:10179000054641F28837306A800706D4FFF7E4FC3B
:1017A000401BB842F7D903204FE0B8F1000F1EBF2D
:1017B000F06920F08050F061E769002F44D0706834
:1017C00000F00C00082801D101203EE02149002052
:1017D00088460866FFF7C8FC0546022F0AD147462F
:1017E0003068800110D5FFF7BFFC411B03200229A0
:1017F000F6D92AE03068800126D5FFF7B5FC411BF9
:1018000003200329F6D320E0206AB0F5803F05D1FC
:101810007168A26821F40031114371607168626AD5
:10182000104321F474110843706001203866FFF7FB
:101830009BFC04463068800106D4FFF795FC011B31
:1018400003200229F6D900E0002002B0BDE8F081B3
:1018500000100240000042424000002000700040A2
:1018600030B370B5044690F83D0015460E4628B9D1
:10187000002084F83C00204600F01CF8206804F1A9
:101880000801FEF7B9FF2068A2683146FEF7F2FFB3
:10189000D4E90102236B2946FEF78CFF2068A1687A
:1018A00050F8212042F0010240F82120002070BDB4
:1018B00001207047F0B585B00020CDE90300CDE9E7
:1018C00001001448017811BB0121144C03260227A2
:1018D00001AD01701048016841F480710160294632
:1018E000006800F4807000900098049602974FF60C
:1018F000C070019004F58060FFF764FB4CF2B37098
:1019000004960297294601902046FFF75BFB05B03D
:10191000F0BD00BF08070020141002400014014071
:101920000C4904280A6822F0040308BF42F00403AB
:101930000B607047411E0020B0EB116F1CBF0120EF
:101940007047044AF023516003490B7007219060EF
:101950001160704710E000E023ED00E0704790F860
:10196000391090F83A000843C0B2704710B5D0F86B
:1019700000E00446DEF80010DEF80C20DEF814303B
:101980005FEA017C50D002F4907003F00103C018AC
:1019900052D0C8071FBF12F48070E06B40F0010006
:1019A000E063480704D51BB1E06B40F00200E06340
:1019B000880704D51BB1E06B40F00400E063BCF184
:1019C000000F04D51BB1E06B40F00800E063E06B52
:1019D00000286ED002EA0100800604D5204600F0FF
:1019E0005FFDD4F800E0DEF81400E16B00F0400089
:1019F00001F0080140184CD0204600F044FD20685A
:101A00004169490640D5416921F040014161606B5F
:101A1000D0B32F494163FFF73FF9002849D0606BED
:101A2000416BBDE81040084711408A0605D52046A5
:101A3000BDE8104000F034BD114008060FD4480640
:101A400037D5DEF80C0020F04000CEF80C00202046
:101A500084F839002046BDE8104000F0F9B894F849
:101A60003900212825D1A068216AB0F5805F16D100
:101A700008886FF35F20CEF804002069002814BFA7
:101A8000481C881C20620FE02046BDE81040FFF78C
:101A900065BF2046FFF762FF0020E06310BD481CD1
:101AA00020620878CEF80400E08C0138E08400045D
:101AB00000D010BDDEF80C0020F08000CEF80C0045
:101AC000DEF80C0040F04000CEF80C0010BD00BF66
:101AD0007B24000850B310B5044690F8390028B9AB
:101AE000002084F83800204600F022F8242084F8F2
:101AF00039002068C16821F40051C160204600F01F
:101B00000BFD2068016921F490410161416921F0D8
:101B10002A014161C16841F40051C16000202021C7
:101B2000E06384F8391084F83A1010BD0120704742
:101B300070B586B000261A4CCDE90466CDE9026680
:101B4000006804F54051884227D1DB4802AD0168A6
:101B500041F480410160016801F4804101910199E3
:101B6000016841F0040101602946006800F00400AA
:101B70000190019803200590022003904FF400701B
:101B800002902046FFF71EFA4FF48060CDE903660D
:101B9000294602902046FFF715FA06B070BD00BF37
:101BA00000080140034690F83A00202806D10120A1
:101BB000E9B1E2B193F83800012801D10220704761
:101BC0000020DA85D8639A859962222183F838004B
:101BD00083F83A101968CA6842F48072CA604A6988
:101BE00042F001024A61CA6842F02002CA607047AE
:101BF00000681449884200D07047134841880A049D
:101C000048BF704702784B0414D40D2A02BF41F438
:101C10008041418070470D4B01F1010C6FF39F3102
:101C20005A541FFA8CF1C72988BF4FF0000CA0F856
:101C300002C070470A2A14BF002141F400414180CC
:101C4000704700BF0038014028010020090700202C
:101C50007047FEE72DE9F84F00F0D0F84FF0C04490
:101C600001204FF0C145002603214FF0110A4FF02B
:101C700012084FF0130B6C4F4FF0100920802E808C
:101C8000218041F218012980602121804FF41C51EC
:101C90002980022121804FF4E061298004212180E4
:101CA00008212E80218040F20721298009212180EE
:101CB0000A212E8021800C212E8021800D212E8052
:101CC00021800F212E80218010212E80218007214C
:101CD0002E80A4F800A02980A4F800802E80A4F80B
:101CE00000B02E8021802880C820B84741F2904063
:101CF000A4F800904FF01009288040F22720A4F8A3
:101D000000A04FF0320A28803220B8471920A4F8EA
:101D1000008028803220B8474FF48050A4F800B0EB
:101D20002880292020802B20A5F800B020800C20BE
:101D300028803220B847202040F20731208021201F
:101D40002E80208030202E80208031202E80208008
:101D500040F207702880A4F800A029803521218056
:101D60004FF40071298036212180082129803721F4
:101D70002180042129803821218039212E80218051
:101D800028803C202080022028803D20208040F6B2
:101D9000040028805020208051202E802080EF20B9
:101DA00028805220208053202E80208040F23F1037
:101DB00028806120208080202E80208081202E801D
:101DC000208082202E80208083202E8020808420EE
:101DD0002E80208085202E80208090202E802080C4
:101DE0009220A5F8009020804FF4C0602880072042
:101DF000208040F233102880BDE8F88F70B5094C80
:101E0000094E4FF480554FF448702560B0474FF4A9
:101E100048706560B04725604FF448703146BDE8B2
:101E200070400847100C0140952700082DE9F04349
:101E300040F23F174FF0C04E4FF021084FF0C14520
:101E40004FF02009A7EB000CC0F10100222710443D
:101E5000079A80B28CB29C4288BFBDE8F083002410
:101E6000AEF80080A5F800C0AEF800902980AEF86A
:101E7000007001E02A800134A6B2B042FAD80131E4
:101E8000E8E74FF0C0422123138040F23F13181AB5
:101E90004FF0C14318802020108019807047000047
:101EA00081B0B5490A6802430A6009680840009099
:101EB000009801B0704700BF1810024010B501F043
:101EC000100401230168A34019421CBF002010BD6B
:101ED0005368D0F800C04BB11168D2F808E00C325A
:101EE000194340F6FA734EEA010E02E0D2F80CE014
:101EF000FA23126803FA04F12CEA010142EA0E0205
:101F0000A24011430160012010BD2DE9F04FB1F84E
:101F1000018098FAA8F34FF0010C4FF00F0B4FF02F
:101F200003094FF0040AB3FA83F338FA03F504BF48
:101F30000120BDE8F08F0CFA03F515EA080F58D020
:101F4000072B04D840F2011202FA03F707E0A3F1CD
:101F500008054FF0011202FA05F545F080673D0EC5
:101F60004C682E5897FAA7FEBEFA8EF292000BFA32
:101F700002F226EA020297FAA7F6B6FA86F6B60049
:101F800004FA06F63C0A32432A500A69C66894FAF3
:101F9000A4F4B4FA84F426EA1726A2403243C260BD
:101FA0004A6842F00802092A23D142598E6897FAFA
:101FB000A7F4B4FA84F4A40009FA04F4A24397FA4B
:101FC000A7F4B4FA84F4A400A64032434251CE6888
:101FD00097FAA7F497FAA7F7B4FA84F4B7FA87F751
:101FE000A400BF000AFA04F406FA07F7A2433A4332
:101FF0004251013399E700000268B0F1804F0ED0E2
:10200000154B98420BD0154B984208D0144B984270
:1020100005D0144B984202D0134B984208D14B681C
:1020200022F45C7CCA6823F4407343EA0C031A432D
:1020300002608A68C2620A8882620A4A904202D0BA
:10204000094A904201D1097C0163416941F00101D3
:1020500041610120704700BF0004004000080040BB
:10206000000C004000340140002C0140BFB5214865
:102070004FF46021204A002401250423C1614FF45C
:102080008071C0E90024C0E90215C0E9043403945A
:10209000CDE90144FEF714FD08B1FEF78AFB0520E7
:1020A00001A903901348CDE90145FEF705FC08B1ED
:1020B000FEF77FFB0224012001A9029401900D4844
:1020C000FEF7FAFB08B1FEF774FB0A48032501A9E5
:1020D000CDE90145FEF7F0FB08B1FEF76AFB0420ED
:1020E00001A9CDE901500348FEF7E6FB08B1FEF770
:1020F00060FBBFBDF009002000240140B0B58AB0EC
:1021000000251D481D4C07950495CDE902554168F1
:1021100041F000514160416801F000510991099975
:10212000016841F0040101606946006800F00400A4
:1021300009900998019543F23000009004F514408D
:10214000FFF7E3FE08950695382005AD0C4905908C
:1021500020462A46FFF7B2FE20680A492A4620F0A8
:10216000040020602046FFF7A9FE206820F48020AC
:1021700020600AB0B0BD00BF1810024000740040DB
:102180000100100212004315E0B50A480022016860
:1021900041F0010101600021006800F001000190A0
:1021A00001980B20FFF748F80B20BDE88C40FFF7A3
:1021B00037B800BF1410024080B588B01648174BDE
:1021C0004FF020414FF0100C0022C0E900134FF4F3
:1021D0008051C0E90222C0E9042CC0E90622C0E90E
:1021E0000822C0E90A120321C0E90C228263CDE96A
:1021F00001220792CDE90522CDE9031201A90022AF
:10220000FFF72EFB08B1FEF7D4FA0548016841F448
:102210008061016008B080BD640A0020040100A054
:102220001C0001402DE9F04F85B0254C4FF000090E
:102230004020CDF81090A04704204FF00408A0479C
:102240001020A0470820A0472020A0471D484FF499
:10225000D0711D4C4FF0020A01276E46DFF870B0B6
:1022600001604FF4805004F58065314660610620BE
:1022700020611648CDF80C90CDF808A00197009089
:102280002846D84740F20660CDE90397CDE9017AA8
:10229000314600902046D847CDF80C90CDE9017A20
:1022A0000C4F314607F10E1000902046D8472846C3
:1022B0003146CDE90078D84705B0BDE8F08F00BFC2
:1022C000A11E000814100140000C0140A1A001044F
:1022D0000B1F000802000204B0B586B06C46142142
:1022E0002046FDF76AFF1B484FF080524FF08045B3
:1022F000016841F0010101600021006800F0010067
:102300000590059814480068144880F81C13026072
:102310004FF6FF700391CDE9011047202146ADF83B
:1023200000004FF08040FFF767FE286844F2070284
:1023300040F0800028600A4841689143416001688C
:1023400021F070010160416821F08001416006B018
:10235000B0BD00BF1C1002400CED00E000E100E049
:102360000400004010B50B48A14C4FF4E1330021AC
:102370000C22C0E90043C0E90211C0E90412C0E91F
:102380000611FFF7A7FB002814BFBDE8104010BDE1
:10239000FEF70FBAA80A0020FEE7704710B5064AFC
:1023A00000F00F030028054C02444FEA0110B8BFAB
:1023B0001A19107010BD00BF00E400E014ED00E039
:1023C00070477047FEF7D4BE70B596B001AC0025DB
:1023D0001421201DCDE91155CDE90F55FDF7EDFE76
:1023E0004FF4E0100226012115904FF48030149034
:1023F000139610910E95CDE90C100CA8FFF7B2F8CA
:102400004FF480600B9502210A900F20CDE90865FA
:10241000079007A8FEF7B6FF4FF400400390204650
:102420000196FEF737FF16B070BD00000E480F4A48
:10243000016841F001010160416811400C4A4160AE
:10244000016811400160016821F480210160416848
:1024500021F4FE0141604FF41F01816005484FF0F7
:1024600000610160704700BF001002400000FFF8EB
:10247000FFFFF6FE08ED00E07047406A0021C185CD
:10248000C184FFF76BBA0168CA6822F49072CA600F
:102490004A6922F001024A61202180F83A1070470F
:1024A00090F83A10222918BF70478168B1F5805F13
:1024B00008D102680369816A526883B1D2B221F8F7
:1024C000012B10E0026901684968002A826A02F162
:1024D0000103836218BF01F07F01117004E06FF304
:1024E0005F2221F8022B8162C18D0139C185090467
:1024F00000D070470168CA6822F02002CA60CA682A
:1025000022F48072CA604A6922F001024A612021E5
:1025100080F83A10FFF76CBB2DE9F04704460068DD
:1025200041F20C660169E26821F4405111430161F6
:10253000A168D4E90423C7681143B7431943394359
:10254000C1604169A26921F4407111434161284988
:10255000884214BFDFF89CA0DFF89CA0D047D4F8D5
:1025600004908046D04767680646D04761681925C1
:10257000BF00684306FB05F38900B3FBF7F3B0FB2C
:10258000F1F06421B0FBF1F202FB1102181A4FEADC
:1025900089031044322202EB001008FB05F2B0FB65
:1025A000F1F0B2FBF3F200F0F000B2FBF1F100EB5E
:1025B0000116D047616868438900B0FBF1F7D04746
:1025C0006168684364228900B0FBF1F0B0FBF2F36C
:1025D000391A03FB12000844322101EB0010216874
:1025E000B0FBF2F000F00F0030438860BDE8F087E8
:1025F00000380140DD140008F1140008F8B50E4C55
:10260000251D2846FFF7B2F90C4E4FF0FF3728463C
:10261000FFF7A5F9202802D00137B742F7D94FF0CC
:10262000FF37284621460122FFF7BCFA10B10137D7
:10263000B742F6D9F8BD00BF28010020FEFF010017
:10264000FEE700002DE9F84F414C204608F0B1FAB2
:1026500008E091F8200000F0F70081F82000204603
:1026600008F0ACFA01460028F3D13A4C60680BF050
:10267000C7F8DFF8DCB08046584608F09AFA0646FC
:102680004FF000094FF0010A5AE084F8009096F8E4
:10269000200001074FD440F0080086F82000708B1E
:1026A000404401B2708300293DDB308B8142C8BFBA
:1026B00070833046F1688847726812B1014630680D
:1026C0009047308BB6F91A1081422CDB96F8200027
:1026D000810703D000F0070105290FD13768B568DD
:1026E0005846314608F0DDFA304608F0E3FD002D8B
:1026F00084F800A01AD03846A84714E010F0010171
:10270000F18BC1F1000171830DD010F0040180F054
:10271000040002BFB18B4942718386F82000D6E9DC
:102720000401C6E904102078012804D1584608F0B5
:1027300040FA064604E05846314608F03FFA06469D
:10274000002EA2D10BF062F86060BDE8F88F00BFE8
:10275000D8070020FC01002070B1012804BFCC2064
:1027600070470138C1EBC101B1FBF0F003A1C0B269
:10277000085C5043000A704700207047FAF2DDC43D
:10278000A37A4A1210B504460420FFF7C9F814488A
:10279000046010BD10B5044604E04FF47A7000F0F8
:1027A00005F8013C002CF8D110BD000080B50B49A4
:1027B0000B4A0023D1F800C0126802FB00FE4868F3
:1027C0004A689042FCD0034490421046A3EB0203B7
:1027D00098BF6344734528BF80BDF1E714E000E073
:1027E000EC0900202DE9F047674EB06E411CB16640
:1027F000B1F5FA7F307803D300210130B166307033
:10280000C0B2042822BF00203070BDE8F087022843
:1028100063D0012818BFBDE8F087B06A0AF07EFDDA
:10282000F06D012109F0DAFA706D6049604CA04743
:10283000B069002102224FF0020807F0CDF8544F92
:102840005C485D49C7E90000C7E90200F06AA0479B
:10285000306B5A49A0473868FDF7D8FCDFF83CA137
:1028600007F11005DFF83C9102460B462846514619
:10287000C847706B4C4C29460722A0477868FDF783
:10288000C5FC07F1170502460B4651462846C847C6
:10289000F06B29460722A047B868FDF7B7FC07F19F
:1028A000250502460B4651462846C847706C294606
:1028B0000722A0477868FDF7A9FC07F11E0502462C
:1028C0000B4651462846C847F06C29460722A047C8
:1028D0003148C0F80480BDE8F087B06A0AF0F5FC22
:1028E000F06D002109F07AFA706D284908F066F859
:1028F000B0690021142207F06FF8254F2548DFF852
:102900009C900221264BDFF89C804FF00042C7E9E3
:102910000000C7E90200204807F1100501602846C1
:102920004946C047706B204C29460722A04778686B
:10293000FDF76CFC07F1170502460B464946284691
:10294000C047F06B29460722A047B868FDF75EFC38
:1029500007F1250502460B4649462846C047706CDC
:1029600029460722A0477868FDF750FC07F11E05AD
:1029700002460B4649462846C047F06C29460722C6
:102980002346BDE8F047184764020020BD850108D2
:1029900000000020A4709D3F100C0140D985010863
:1029A00014AEF33F61EF000821A80008AA850108D2
:1029B000BDA9000814AE4341B6850108DF850108B2
:1029C00068B1016800EB5101064801F10802006896
:1029D00000F5205300209A4238BF081D7047014877
:1029E00000687047040200208A0701F1040218BF42
:1029F00022F003010B1D0268B3EB520F08BF19460A
:102A0000B1EB520F01D149000FE04218536823F097
:102A1000010353606FF00703A3EB410C0368490007
:102A2000634423F001035360026802F00102114382
:102A300001607047302806D3392801D8303818E0B3
:102A4000602888BF2038C0B2A0F14101052907D80D
:102A50000A20DFE801F00E0307090B0D0B2008E048
:102A6000002006E00C2004E00D2002E00E2000E033
:102A70000F20C0B2704700002DE9FE4F0446007FD2
:102A8000410700F13D81656935B1800713D42846BF
:102A9000102109F053F970B908F04EF801462046AC
:102AA00000F008FC054630B909F02AFD0146204631
:102AB00000F000FC054660692E46854244D06168FE
:102AC0000028A16009D0FA4983690A680A21984759
:102AD00094F82800800700F113810026002DC4E936
:102AE000055531D00AF092FE2062C4E9036694F8DD
:102AF000280000F0FE0084F82800207F00F0FC0091
:102B00002077606906E090F83010890648BF0646D5
:102B100009F07CF80028F6D156B1304609F076F875
:102B200004303246014608F00DF8304609F0B8F896
:102B3000DF480821026860698369984794F8280093
:102B4000800700F1DD8066692089A188002EA1EB55
:102B50000000A0816089E188A1EB0000E08100F025
:102B6000CF80DFF83887B36930460921D8F80020D4
:102B7000984794F82800800700F1C280666904E055
:102B800046B1304609F042F80646304609F018F8DA
:102B90000028F5D1002E76D0304609F00CF8002838
:102BA00071D0A089218A0F182782E189628A53187F
:102BB000638294F81CC05FEACC720ED13FB2002F42
:102BC00000D57F42092F05DC1BB2002B00D55B42EC
:102BD0000A2B58DB4CF001022277084353D03046D1
:102BE00009F052F88346304609F054F8074609F0D8
:102BF0000BFA0090B6F810A0B6F81290304609F023
:102C000005F809F03BF80290304608F0FFFF08F0A5
:102C1000E5FF0190A089584401B2E089384402B22E
:102C2000304609F0F9F8308A50451BD1708A484582
:102C300018D1304608F0EAFF09F020F80746304680
:102C400008F0E4FF08F0CAFF02998F421BD10199F6
:102C5000884218D109F0D8F90099401A80B209F0D9
:102C6000D9FA10E0207FC1070AD0D8F80020B36954
:102C700030460E21984794F82800800703D4207F1F
:102C800040F00200207794F82800810738D4217F93
:102C900000F0010001F00201401816D1206A0AF08C
:102CA000AFFDB0F5C87F10D9D8F80020AB69284631
:102CB0000C21984794F82800810721D440F00100A6
:102CC00084F828000AF0A2FD6062207F800717D4F4
:102CD00094F82800C00713D0606A0AF091FD6528B7
:102CE0000ED3D8F80020AB6928460D21984794F8F8
:102CF0002800800748BFBDE8FE8F0AF087FD6062AC
:102D0000BDE8FE8F7FB50446007F410713D460699C
:102D1000C8B1102109F012F86169002854D020468A
:102D200000F0C8FA62490A6861698B6988424FD02D
:102D300008460A214DE0002100F0FB00C4E908111B
:102D4000C4E905112077A569002D00F0AF8094F843
:102D50002800800700F1AA80207F800705D4A5E025
:102D600045B1284608F052FF0546284608F028FFDE
:102D70000028F5D1002D00F09980284608F025FFA5
:102D8000A8B1B4F90C00B4F90E10642200EB800075
:102D9000000190FBF2F301EB810000011904A38113
:102DA00090FBF2F0E0814CD180B2002849D1207F25
:102DB0000F2100F0FD0020773D48AB6902682846EE
:102DC00004B0BDE87040184739488B69026808466E
:102DD0000B21984794F82800800767D4606908F0B1
:102DE000FBFE054606F051FF18B12846002106F00B
:102DF00098FF6069202108F0A1FFC8B9606908F058
:102E0000EBFE65690BE0284608F000FF80B1202149
:102E1000054608F093FF58B9284608F0DDFE002863
:102E2000F1D02DB106F029FF10B1284606F0B0FE12
:102E300094F82800800739D40020C4E908006061B4
:102E400081E702A9284608F0AFFE284608F01CFFDB
:102E5000A1890E18284608F01DFFE28931B21044FE
:102E600002B2284608F0D8FF6946284608F09CFEC2
:102E7000BDF80000BDF80810814201D0A089A8B9B2
:102E8000BDF80200BDF80A10814203D0E089002895
:102E900018BF7FBD00200F21E060207F00F0FD0003
:102EA0002077FE48AB690268284698477FBD00BF7F
:102EB000E80A002090F834108A0758BF70470022B3
:102EC00001F0FC01C0E90B22C0E90722426280F850
:102ED000341090F8281001F0FC0180F82810704799
:102EE0002DE9F04F85B0DFF89C130FF29C330020E2
:102EF00040F22B124FF0000808F02CF9002006F0E9
:102F000067FFDFF89893054601AC0DF1120BA9E1BC
:102F10002846C9F80050FFF7CDFF95F83400400768
:102F200000F19C8105F10C0A14E0D9F80020BB697E
:102F300038460C21984708E0D9F80020BB6938468C
:102F40000C219847C3464FF0000895F8340040F034
:102F5000010076E12846214606F040FF0646284655
:102F6000FFF7A8FF9DF80C000128287302D10AF092
:102F70004DFCE86328780138032800F26981DFE816
:102F800000F002103547286C002868D0AA8ABDF8E6
:102F900004108A425DD1EB8ABDF8062093425AD1D3
:102FA0005DE0286C002800F053819DF80C1000298A
:102FB00067D0012940F04781287C012800F08680F5
:102FC000002840F040810AF021FCE862286C06F0FD
:102FD00064FE002800F0378101990A2940F033810E
:102FE000D9F800208369082198472CE1286C0199C1
:102FF00030F8212000EB81002A8240886882A98A6B
:10300000914239D1E98A814236D19DF80C002DE0F8
:10301000286C002800F01C819DF80C10002940F05D
:10302000958006F032FEBDF90410F0B3B1F1FF3F18
:1030300070DD002900F08880002706E0286C13214D
:1030400006F05FFEBDF80410013708B28742F5DBD9
:103050007AE0BDF8062009B212B208F0DDFEBDF834
:1030600004002882BDF806006882287B012803D16D
:103070005046FFF701FD02E05046FFF743FE286986
:10308000E5E0297C012940F0DE80696941F0020217
:1030900001910B2A34D1002106F043FE0199092940
:1030A0002ED1286C06F038FDC3E0B1F1FF3F3FDDC3
:1030B000002949D0002705E0286C06F02DFDBDF859
:1030C0000410013708B28742F6DB3DE001980A2878
:1030D00004BF95F834005FEAC07040F0B480E86A3D
:1030E0000AF08EFBB0F5C87F40F2AD80286C06F088
:1030F000D4FD002800F0A780D9F80020836918E7E4
:103100000A2900F085800B2940F08880286C06F0A1
:1031100078FD8EE0002706E0286C142106F0F1FD12
:10312000BDF80410013708B240428742F4DB0BE0DF
:10313000002705E0286C06F064FDBDF80410013797
:1031400008B240428742F5DB9DF80C1051B10129CD
:1031500079D1287C01282BD0002874D10AF056FBA5
:10316000E86270E0287C01286DD1286C06F095FD9E
:1031700000288DF8128049D0836914215A46984757
:103180009DF812002F6C00284FD095F8340097F866
:10319000581000F00100890742D4002849D1384670
:1031A00006F073FD80F00101384606F0BAFD40E0FC
:1031B00095F83400C00746D1E86A0AF021FBB0F563
:1031C000C87F40D9286C06F068FD00288DF8138070
:1031D0003FF4BBAE836914210DF1130207469847F3
:1031E0009DF8130000283FF4A0AED846D5F840B0B3
:1031F000DBE9010188423FF49FAE584606F045FDE9
:1032000080F00101584606F08CFD9BE62F6C0CE027
:1032100095F83400C0070CD1286C07E0286C06E054
:1032200018B1D7E90101884203D138460A2106F0D6
:1032300068FD95F8340081070AD400F0FE00C5F857
:103240002C8085F834009DF80C0028740198686182
:103250002846FFF72FFE002E7FF47CAE284606F0AE
:10326000B7FD0546002D7FF453AE002005490CA3A1
:103270004FF4AB72C9F80000002007F06BFF05B0F7
:10328000BDE8F08F0D860108696E64657620746173
:10329000736B20737461727465640000E80A002027
:1032A000696E646576207461736B2066696E6973FC
:1032B00068656400F8B505460C4601F11000291D4B
:1032C00001F03FF810B3261D304607F072FC08E00D
:1032D00028463946FFF7EEFFC8B93046394607F0B1
:1032E0006DFC07460028F3D1204608F058FC68B171
:1032F000254607E0284608F077FC38B9284608F04C
:1033000085FC0546002DF5D1204600E0002001B0E7
:10331000F0BD0000002106A2072904BF002070476D
:10332000535C0131834204BF01207047F4E700BFC2
:10333000202C2E3B3A2D5F002DE9F04F03AFA1B0BA
:103340008346B86993F838909E4647F83C2C8A46E5
:10335000FF281CBF09FB00F04FEA10299BF818401A
:10336000BBF90020BBF90460BBF90230BBF9065081
:10337000E81AA6EB020C3CB105EB0A029A4207DD03
:10338000404227F8140C07E006EB0A039342F7DDEE
:1033900027F8140CCCF1000C4FEA0C12000147F88E
:1033A0008CDC27F8122C27F8140CBEF93640ADEB54
:1033B000C406B546A5B247E91369002D46D0A7F16A
:1033C00030090026A7F13401A7F11402F04648465F
:1033D00047F8346C00F01AFEE80047F87C5C644360
:1033E00005B213E037F9280C57F84C1C37F9262C96
:1033F00021F82600404301EB860102FB02004A80CF
:10340000A0420AD2484600F03BFE0136AE42E9DB5C
:1034100057E9136957F87C3C02E0731E57E91369BA
:10342000C646180412D018B2022247F87C3C06EBBC
:10343000800030F9041C30F9020C90FBF2F50120F9
:1034400091FBF2F847F8680C184623E09BF8180047
:1034500058B1BBF90620BBF9020002EB0A01814218
:103460000EDC7088013870800AE0BBF90420BBF9DB
:10347000000002EB0A018142DEBF30880138308053
:1034800000204FF00008002547F8680C012047F89D
:103490007C0C002000B206F1020A4FF0FF3447F81E
:1034A000400C0EF1340047F888AC47F8440C00207B
:1034B00047E9168563E13AF8021C002CA1EB0801EC
:1034C0002AF8021CBAF80020A2EB0502AAF8002094
:1034D00000F053819BF81830002B5DD03AF8063C81
:1034E00089B28B4200F0498100B2334606EB80017D
:1034F000B1F802C033F82010BBF80000BBF912305D
:10350000084447F8501CBBF80210A2EB0C06B3F1BC
:10351000FF3FA0F1010040F39A8057F8448CB8F8BF
:10352000002082B057F85C5C4FF6FF73614457F897
:10353000489C00B247F8646C09B225EA030357F8C7
:103540003C5CCDF80490134432B2664647F85C3CCC
:1035500000932B4603F06EFA02B0B8F80020BBF8D7
:103560000400BBF8061057F8588C82B057F8603C3E
:10357000314409B26FF30F03134447F8603CCDE9BF
:1035800000392B4657F8502C104457F8642C013062
:10359000524200B212B29AE03AF8043C92B293421C
:1035A00000F0EB8002B2BBF90E30BBF8000036F839
:1035B0002280B3F1FF3FA1EB080C40F38E8057F857
:1035C000449C06EB82014D88BBF80210B9F800203C
:1035D00047F8505C82B057F8746C4FF6FF7329447B
:1035E00057F83C5C404447F864CC013900B226EA05
:1035F000030357F8486C09B213440FFA8CF247F8EA
:10360000743C00932B46019603F0E6F902B0BBF838
:103610000610BBF80400B9F8002082B057F8783CD7
:103620004044B14600B26FF30F03134447F8783CAF
:10363000CDE900362B4657F8502C57F84C6C114406
:1036400057F8642C0131524209B212B28DE057F89A
:10365000443C47F864CC9946B3F800C082B057F8B0
:103660006C5C4FF6FF73114400B232B2013125EAAF
:10367000030309B203EB0C0557F83C3C47F86C5CBC
:10368000009557F8485C019503F0D4F902B0BBF8F7
:103690000610BBF80400B9F8002082B057F8703C5F
:1036A0003144A9466FF30F03134447F8703CCDE94A
:1036B000003557F8502C57F83C3C104457F8642C10
:1036C00001301144724200B2013112B209B203F06A
:1036D000B1F902B057F84C6C4CE057F8443C06EB9B
:1036E0008202BBF802E0528899461B8847F8502CAA
:1036F00082B057F8805C4FF6FF7608440EEB02016B
:103700000FFA8CF20130013925EA060657F8485CB9
:1037100000B209B21E4457F83C3C47F8806C009652
:103720000195664603F058F902B0BBF80400BBF8F7
:103730000610B9F8002082B057F8843C3044A946FE
:1037400040446FF30F030130134400B247F8843C48
:10375000CDE9003557F8502C57F83C3C11447242E3
:1037600057F84C6C013112B209B203F035F902B0CE
:1037700057F8588C204657F8545C0AF1040A57F859
:10378000401C01348C42FFF696AE57F8681C0029A5
:1037900000F0EC8057F87C1C9BF8182009B2002A36
:1037A000A1F1010144D006EB810100B23246B1F82B
:1037B00002A006EB800136F82060BBF80000BBF9E0
:1037C00012204C88BBF802103044B2F1FF3FAAEB44
:1037D0000405A0F101006BDD57F844AC47F8506CCC
:1037E000BAF8003082B057F83C6C21442A44009368
:1037F00000B2C846CDF8049009B212B2334603F0C5
:1038000019F902B0BBF81220BBF80400BBF806108F
:10381000BAF800306DE9023957F8503C2A44214487
:10382000524209B2184412B23346013000B265E088
:1038300002B236F821503346BBF90E10BBF8000037
:1038400036F8226003EB8202B1F1FF3FA5EB0604DC
:1038500057DD57F8448C5588BBF80230B8F8002083
:1038600047F8505C82B0214400923044CA46CDF8FB
:1038700004900AB2591957F83C5C00B2013909B2F8
:103880002B4603F0A9F802B0BBF80E20BBF80610D7
:10389000BBF80400B8F800306DE9023957F8503C25
:1038A00022443044524200B2194412B22B4656E030
:1038B00057F8443C1C461B8882B051442A4400936C
:1038C00057F83C3C00B2C846CDF8049009B212B299
:1038D00003F0B0F802B0BBF81220BBF80400BBF84C
:1038E000061023886DE9023930442A44514457F8C0
:1038F0003C3C0130524209B200B212B203F09AF8D5
:1039000031E057F844AC5688BBF80230BAF80020D2
:1039100047F8506C82B0214400922844C846CDF844
:1039200004900AB2991957F83C6C00B2013909B2F7
:10393000334603F051F802B0BBF80E20BBF8061076
:10394000BBF80400BAF800306DE9023957F8503C72
:1039500022442844524200B2194412B23346013183
:1039600009B203F039F802B057F84C6C9BF8180014
:1039700057F87C2CCA4600280CBFBBF90E10BBF9C7
:103980001210B1F1FF3F03DD012147F8641C08E08C
:1039900057F8681C494247F8641C4FF6FF7147F816
:1039A000681CBBF80010002827F8341CBBF8021074
:1039B00027F8361C00F08F8110B2BBF80A4001389E
:1039C00047F85C0C06EB8000023047F8580CDFF833
:1039D0003406006847F8540CDFF82C06006847F8F6
:1039E000480C012047F8500CCCE0BBF80A00844298
:1039F00000F0C88057F8884C4FF0FF3852E034F898
:103A0000021C5346084427F8300C37F8361C22882D
:103A1000114427F82E1CBBF8082027F82A1C37F879
:103A2000341C57F8486C1044C943084457F8441CE8
:103A300027F82C0C4FF6FF70098825EA000045187E
:103A400057F83C1CA7F130002A46B047B8F1000FE8
:103A500027D034F8060C34F8021C081A57F8501C0A
:103A6000B0FA80F040090843C0071AD157F8440C57
:103A7000BBF8121037F82E3C028837F9300C82B0B0
:103A80004FF6FF76591ACDF800A029EA060609B2CA
:103A900006EB020957F83C2C57F8546C4B46B047DC
:103AA00002B0043437F8340C57F8401C08F1010810
:103AB0008845A4DB57F84C4C218837F836ECBBF826
:103AC0000820B4F802C047F8502C37F8342C57F8C7
:103AD000448C47F8702CB8F8002082B057F8606C1E
:103AE0004FF6FF73084400B226EA0303134447F875
:103AF000603CCDE9003A57F8681C57F8502C57F84D
:103B0000703CAEEB01019A1A57F83C3C614412B28A
:103B100009B202F061FF02B037F834EC57F85C0CE0
:103B200034F8201037F8364C57F8580CBBF808C05A
:103B3000028837F8343CB8F8000082B057F86C6C53
:103B40006FF30F06064401EB0E0047F86C6CCDE9ED
:103B5000006A00B257F8641C21441144ACEB030224
:103B600057F83C3C09B212B202F036FF02B0BBF883
:103B7000080027F8340C0020BBF80A4027F8364C20
:103B800047F8500C584600F07BFA00287FF42DAF20
:103B900057F8886CD1464FF0FF3851E036F8021CD8
:103BA0004B46084427F8300C37F8361C328811444D
:103BB00027F82E1CBBF8082027F82A1C37F8341CDD
:103BC00057F8485C1044401A57F8441C27F82C0C4E
:103BD0004FF6FF70098824EA0000441857F83C1C8F
:103BE000A7F130002246A847B8F1000F27D036F8D9
:103BF000060C36F8021C081A57F8501CB0FA80F070
:103C000040090843C0071AD157F8440CBBF81210FA
:103C100037F82E3C028837F9300C82B04FF6FF752A
:103C2000591ACDF800902AEA050509B205EB020AF7
:103C300057F83C2C57F8545C5346A84702B004365A
:103C400037F8340C57F8401C08F101088845A5DB0B
:103C500057F84C6C318837F8362CBBF808C073889D
:103C600037F8345C57F8444CA04624886DE9024983
:103C7000084457F8681C00B2511A6FEA0C022A4433
:103C800057F83C5C194409B212B22B4602F0A4FE6C
:103C900002B037F8340C57F85C1C36F8211037F8AE
:103CA000362C57F8583CBBF808C01E8837F8343C0F
:103CB000B8F800406DE90249084457F8641C00B2A6
:103CC00011440CF10102D21A31442B4609B212B24E
:103CD00002F082FE8EE110B2BBF808404FF6FF7A88
:103CE000013847F8700C06EB8000023047F86C0C86
:103CF000B01E47F8580CC348006847F85C0CC2482F
:103D0000006847F8500C012047F8540CC6E0BBF897
:103D10000800844200F0C28000245BE036F82410E2
:103D200006EB8408084427F8300C37F8361CB8F83E
:103D3000022027F82C0C501827F82E0CBBF80A107C
:103D4000084437F8361C57F8483C57F8505CC943CC
:103D5000084457F8441C27F82A0C29EA0A00098865
:103D600000EB010957F83C1CA7F130004A46A84770
:103D70007CB357F8580CB8F8021030F82400081A31
:103D800057F8541CB0FA80F040090843C00720D10E
:103D900057F8441CBBF80E0037F8305C0A8837F936
:103DA0002E1C82B057F8486C57F8603C281A00B2B5
:103DB000009623EA0A06B31857F83C2C57F84C6CC7
:103DC0001D4647F8603C57F85C5CA8474FF6FF7A01
:103DD00002B0013437F8340C57F8401C8C429DDB9C
:103DE000B6F8008037F836ECBBF80A50718837F81F
:103DF00036CC57F8444C238882B057F8742C714461
:103E000057F8486C09B222EA0A020196134457F89F
:103E1000682C47F8743C0093801AACEB05024044D0
:103E200057F83C8C12B200B2434602F003FE02B0D7
:103E300037F8340C57F84C1C57F8702C31F822C066
:103E400037F836EC57F86C1CBBF80A50098837F87D
:103E5000362C238882B057F8784C7144AA1A09B2DC
:103E600012B26FF30F041C4447F8784CCDE90046BA
:103E700057F8643C57F84C6C18444346604400B211
:103E800002F0D8FD02B0BBF8084027F8344CBBF86C
:103E90000A0027F8360C002047F8540C584600F06A
:103EA000EFF800287FF433AF57F8505C4FF000096B
:103EB0004FF6FF7853E036F8291006EB89060844E0
:103EC00027F8300C37F8361C728827F82C0C50185D
:103ED00027F82E0CBBF80A10084437F8361C57F8A0
:103EE000483C401A57F8441C27F82A0C24EA0800DA
:103EF0000988441857F83C1CA7F130002246A8470F
:103F0000B9F1000F27D057F8580C718830F8290004
:103F1000081A57F8541CB0FA80F040090843C0074B
:103F200019D157F8441CBBF80E0037F8303C0A880A
:103F300037F92E1C82B057F8486C181A00B2009658
:103F40002AEA080606EB020A57F83C2C57F85C6C84
:103F50005346B04702B057F84C6C09F1010937F8E5
:103F6000340C57F8401C8945A5DB318837F8362CCE
:103F7000BBF80AC0738837F8365C57F8444CA14642
:103F8000248882B0009457F8684CB04657F8486CC3
:103F9000001B0196084499186FEA0C022A4457F84E
:103FA0003C5C00B209B212B22B4602F043FD02B0F3
:103FB00037F8340C57F8701C38F8211037F836EC05
:103FC00057F86C2CBBF80AC0128837F8363CB9F8A1
:103FD00000406DE9024657F8644C2044084402EB67
:103FE0000E010CF10102D21A00B209B22B4612B234
:103FF00002F020FD02B057F88CDCA7F10C04A546B6
:10400000BDE8F08FF08401087CF8000870B5B1F9C4
:1040100000304FF0000E4FF0FF350380B1F9021071
:104020004180B2F900408480A342B2F902604FF0AF
:10403000FF32A0F816E0B8BF0122B4EB030CC28136
:1040400048BFCCF1000CB142A0F80CC0C680418141
:104050000381B8BF012545820FFA8CF2711A48BF5F
:104060004942018209B28A42C8BF4FF0010E80F86E
:1040700018E0D8BF4A42022192FBF1F1818270BD63
:1040800010B501898288914205D1C2884389934243
:1040900004BF002010BDB0F91420B0F910C0C282D6
:1040A000B0F80CE00FFA8EF35B429A42134605DD3E
:1040B000A2EB0C038382C48921440181624506DAA4
:1040C00003EB0E018182418A428911444181012022
:1040D00010BD0000B0B51949044619A300204622BE
:1040E00007F038F8616811B1206800F04DF81B48FE
:1040F00006F082FDD8B1054694F82000214624221E
:1041000000F0FB0084F820002846FCF73DF86A68C0
:1041100012B12868296990471148012111A35A2238
:10412000017006490020BDE8B04007F013B803490C
:1041300011A303204C2207F00DF8FEE71B870108AE
:10414000616E696D6174696F6E206372656174651B
:10415000207374617274656400000000D807002049
:10416000FC010020616E696D6174696F6E2063727D
:1041700065617465640000004F7574206F66206D82
:10418000656D6F72792100002DE9F047DFF87880C6
:1041900005460C46404606F00CFDDFF870900646DA
:1041A0004FF0000A17E040463146374606F006FD5C
:1041B00006463868A8420ED114B17868A0420AD1E8
:1041C0004046394606F06DFD384607F073F84FF06B
:1041D000010A89F800A0002EE5D10AF00100BDE82F
:1041E000F08700BF80B50848242106F0F9FC09F0EB
:1041F0000DFB064903220023486005482021BDE845
:10420000804009F0C1B900BFD8070020FC010020A0
:1042100045260008B0F91A10028B8A420FBF4FF4EE
:104220008061890291FBF2F189B2D0E90420801A01
:10423000484302EBA0207047891A4FF47A7248BFB6
:1042400049425143B1FBF0F04FF6FF71884238BF4D
:104250000146002908BF012188B27047B0F9043037
:10426000B0F90010B0F90220B0F9060001300133B6
:10427000591A801A4843704710B5B1F900C0B2F915
:1042800000E0F445C8BFE646A0F800E0B1F902C07E
:10429000B2F902309C45C8BF63464380B1F904C0FF
:1042A000B2F90440A445B8BF64468480B1F9061051
:1042B000B2F906209142B8BF0A46C2800020002110
:1042C000A645D8BF01219342D8BF0120084010BDA8
:1042D000B1F90020B0F9003093420BDBB1F90220B4
:1042E000B0F90230934205DBB1F90420B0F9043093
:1042F000934201DD00207047B0F90620B1F90610A5
:1043000000208A42D8BF01207047B1F90420B0F9DB
:104310000030934213DCB1F90020B0F9043093422D
:104320000DDBB1F90620B0F90230934207DCB1F998
:104330000210B0F906008842A4BF01207047002097
:104340007047B1F90020B0F900309A4209DBB0F9AA
:1043500004309A4205DCB1F90210B0F90220914212
:1043600001DA00207047B0F9062000209142D8BF42
:1043700001207047B1F900C0B2F900309C45B8BFC8
:1043800063460380B1F902C0B2F902309C45B8BF60
:1043900063464380B1F904C0B2F904309C45C8BFFC
:1043A00063468380B1F90610B2F906209142C8BF76
:1043B0000A46C2807047DDF800C0A0F806C08380BE
:1043C000428001807047000070B50D4643490446A5
:1043D00043A30020372206F0BDFE2046294607F001
:1043E0003DFA002842D0444E0446306818B92046B1
:1043F00007F014FC3060706818B9204607F0D9FB4C
:10440000706020460C2107F01AFAB0B3064664200B
:104410003B49B080002030603848B060B07900F08F
:10442000FE00B071204607F032FD3649204607F005
:10443000CBFC4DB3284607F0CDFB418871808188C5
:10444000B180018831808168B160B179807901F0F3
:10445000FE0100F001000844B071204607F09EFC08
:10446000B6F90010204600F09FF92EE01B492A4BB8
:1044700003203B2206F06EFEFEE71849264B032080
:10448000432206F067FEFEE72046002107F094FC79
:1044900020466421102207F0FCFCB6F900102046EB
:1044A00000F082F909F0A0F958B1026D05462046E6
:1044B000002100F063F96A6D2046012100F05EF9E9
:1044C00003E01149204607F01DFD04490FA3012018
:1044D000692206F03FFE204670BD00BFB28701088A
:1044E0006C765F62617220637265617465207374BB
:1044F000617274656400000020020020280500201D
:10450000E14700081D450008FC030020626172209D
:104510006372656174656400E38501082DE9F04309
:104520008FB0894606466AB1012A27D0022A40F098
:10453000D380C04849460222436830460FB0BDE8E8
:10454000F0431847304607F054FB8046304607F0EA
:10455000E9FBA8B330460021002400F0CDF86F46F7
:104560000146384608F096FB06F1100049463A46E7
:104570004346ADF80C4002F063FD27E0304607F0FB
:10458000D1FB002800F0A880304607F032FB05463A
:1045900030460021002400F0AFF86F46014638464F
:1045A00008F078FBADF8124049463A462B469DF894
:1045B0001C0040F001008DF81C0006F1100089E09D
:1045C0009C4849460022436830469847304607F0E9
:1045D00001FB074640883988814204BFB8795FEA09
:1045E000C07079D0304607F0F5FA82687469356991
:1045F0000123108B03EB1443211AADF80410411969
:104600002D0CADF8001045EA04450844D68A35441F
:10461000C6EB144C2E44ADF806C0ADF802509B1BFF
:104620001EB2631C181AB7F9003005B2B7F90200C0
:10463000B542A3EB000426DA04FB06F3B7F9044005
:10464000211A012C93FBF1F3ACEB030303F10105F9
:10465000ADF802503BDBB0F1FF3F38DCBB7913F023
:10466000010334D070432FB2404290FBF1F0ACEB29
:10467000000000B28742A6BFADF80200ADF8067098
:10468000ADF8060023E004FB05F6B7F90440231A51
:10469000012C96FBF3F60E44A6F10106ADF804607A
:1046A00015DBB0F1FF3F12DCBF7917F001070ED028
:1046B000684337B2404290FBF3F0084400B28742AF
:1046C000CEBFADF80000ADF80400ADF8007068464C
:1046D0004946434602F0B4FC01200FB0BDE8F08328
:1046E00080B507F077FAB0F9040080BD80B507F017
:1046F00071FAB0F9020080BDB0B50D46044607F06E
:1047000069FA012D04BF8068B0BD25B92046BDE817
:10471000B04007F085BA0020B0BD80B507F05AFA66
:10472000B0F9000080BD2DE9F04117460D468046E6
:104730008CB207F04FFA06464088A04205D1B188F6
:10474000B8B2814208BFBDE8F0817580B780B6F984
:104750000000B84205DD40463946378000F024F8B5
:10476000308800B2A84204DA40462946358000F07D
:104770001BF84046BDE8F04107F092BA70B5144608
:104780000E46054607F026FA012E06D05EB92846E9
:104790002146BDE8704007F0B5BB84602846BDE8FF
:1047A000704007F0EDBA70BDB0B504468DB207F0A9
:1047B00011FA0188A94208BFB0BDB0F9043029B28E
:1047C000B0F902208B42B8BF9DB229B29142B8BF66
:1047D000154605802046BDE8B04007F061BA0000EC
:1047E000F8B50646134815460F4603683046984705
:1047F000044601281BD1042F0ED0062F17D100210B
:104800000846062904D855F82020411C002AF7D173
:1048100009A145F820100AE0304607F0DBF980686E
:10482000B6F93410B0F912008842C8BFB0862046ED
:1048300001B0F0BD200200206C765F626172000062
:104840002DE9F84389465949804659A300204A2258
:1048500006F080FC4046494601F068FB002863D022
:10486000594D0446A86818B9204607F0D7F9A86042
:10487000E86818B9204607F09CF9E8602046342122
:1048800006F0DDFF002856D0054600204F49504A6B
:10489000504B514E2F4647F8040FC7E90100F8600E
:1048A00087F82400C7E90563C7E907217885C7F8B9
:1048B00026003E464A4997F82C0000F0FC0087F895
:1048C0002C00464846F8100F204607F0E0FA45490C
:1048D000204607F079FAB9F1000F33D0484607F0C7
:1048E00079F990F8281085F8281095F8301090F88C
:1048F000302001F0FE0102F00102114485F8301071
:10490000418D6985818DA985C18DE985051D2ECDD6
:104910002EC700F114078ECF406A86E88E00306102
:10492000204607F03BFA36E02049344B03204F2263
:1049300006F010FCFEE71D49304B0320572206F01D
:1049400009FCFEE7B8F1000F03D02046012101F079
:10495000FCFE2046012107F02FFA08F045FFB0B118
:10496000C268214E054620460021B0472A692046EC
:104970000121B0476A6920460221B047AA69204652
:104980000321B047EA6920460421B04703E03168BB
:10499000204607F0B7FA054914A30120982206F033
:1049A000D9FB204601B0BDE8F08300BFCB870108EA
:1049B000627574746F6E20637265617465207374C0
:1049C0006172746564000000280200203034002009
:1049D000CC06002090060020540600201806002077
:1049E000F54C0008014A0008B14C00086275747467
:1049F0006F6E20637265617465640000E385010871
:104A00002DE9F04F93B0022A13D00C460646012A36
:104A100011D0002A40F0D980DFF82C96D9F8100088
:104A2000B04210D0D9F80C303046214600229847C9
:104A3000CBE00025CAE09048214601220125C36849
:104A400030469847C2E0304607F0D3F883463046F8
:104A500007F0C0F899F8001021B399F8011000F19F
:104A6000140700F11C050DF110083846002918BF85
:104A700028460168404608F00DF999F8010099F8B8
:104A800002104246002808BF3D46286857F821100A
:104A9000B9F8043008F02EFA06F11000214642461B
:104AA0005B4690E099F8011000F1140800F11C0237
:104AB00004AD40460192002918BF104601682846FF
:104AC00008F0E8F899F8020006F1100A21462A4693
:104AD0005B4658F82000408AADF82200504602F0AC
:104AE000AFFA304607F0CAF8CDF800B0834630463A
:104AF00007F074F805468345C8BF5846B9F9041055
:104B00000222022790FBF2F095FBF2F28029A8BF67
:104B10008021B9F816304843A2EB030C728A624434
:104B2000B6F810C0B9F8146012B24A4303EBD212BF
:104B300002EBD013A2EBD012ADF80E309BFBF7F3D3
:104B400002AF9B1B63441BB2594306EBD11101EB2F
:104B5000D013A1EBD0105146ADF80C30ADF80A20BF
:104B6000ADF8080038463A46FFF786FB99F8020090
:104B70000DF1100AB9F9046058F82010504608F0F9
:104B800089F899F80100022100230028019818BF34
:104B90008046D8F80000AB45B0F90600B8BF5D46C6
:104BA000B6F1800295FBF1F1ADF81C30D8BF1A4682
:104BB000009B401A12B25043524601EBD0102146DE
:104BC000ADF81600384602F03BFA0125284613B02E
:104BD000BDE8F08F80B506F0FDFF90F8280080BD9D
:104BE00080B506F0F7FF90F8300000F0010080BDBE
:104BF00018B1214A918007F053B8704770B58AB058
:104C00001D4E306906F0E6FF04463069FFF7E2FF0B
:104C10000546306907F044F80120F07045F00200C5
:104C2000022804BF94F830005FEAC07003D000206F
:104C300030610AB070BD30780028F8D100204FF400
:104C40008071069005910D4904910D4902910D491D
:104C5000039131690191A18D4942ADF81E10E18D9A
:104C6000ADF81C108DF82400089001A8FFF732FA67
:104C700001203070DDE700BF280200201542000847
:104C8000F14B0008FD4B0008B0B50D46044606F098
:104C9000A1FF90F82810A94208BFB0BD80F82850A5
:104CA00000EB850041692046BDE8B04007F02AB915
:104CB00070B515460E46044606F08CFF042E9CBFC8
:104CC00000EB86014D6190F8281000EB81004169EE
:104CD0002046BDE8704007F015B910B50C4606F047
:104CE00079FF90F8301001F0FE01214480F8301077
:104CF00010BD00002DE9F04F89B0DFF84CB3164627
:104D00000D468246DBF8083098470746012840F0F8
:104D1000A680504606F05EFF81465046FFF75AFFD8
:104D200080465046FFF75CFF0127122D00F2978066
:104D30000446DFE805F00A9494949494179424337D
:104D400038415867949494947100DBF810005045F2
:104D500040F08480BF495046FFF716FA0020CBF898
:104D600010007BE000210846062904D856F82020D0
:104D7000411C002AF7D1B5A146F820106EE099F841
:104D80002800022800F06F80002840F0768050460E
:104D900001210124FFF778FF00206AE0304605F08A
:104DA00009F800285AD099F82800032852D0012881
:104DB00054D1504600214FE0304604F0FBFF00285C
:104DC0003FD199F8300080073BD499F82800032898
:104DD00000F00281012840F00681002C00F0FF80E5
:104DE00050460221FDE00127B8F1040F37D0D9F871
:104DF0000C10002933D099F8300040F0020089F8F7
:104E0000300096E00127B8F1040F28D0D9F810102F
:104E1000002940F08E8022E0307801270A380A28E5
:104E20001DD8DFE800F0C91C1C1C1C1C1C067306E6
:104E300073005046FFF7D4FE00286FD05046022181
:104E40006AE099F82800032878D001287AD15046E2
:104E5000002175E050460221FFF716FF0127384672
:104E600009B0BDE8F08F504603210324FFF70CFF83
:104E700001208BF802408BF8010099F8300000F017
:104E8000FD0089F83000DBF8100058B1504509D01A
:104E90007049FFF779F9DBF8100006F001FF0020F8
:104EA000CBF81000B9F82A0020B300248BF8034097
:104EB0008BF80040CBF810A004F052FF0BF1140166
:104EC00004F054FF4FF48070CDE904406248CDF8FF
:104ED00000A003905F4801906048ADF81A4002902E
:104EE000B9F82A008DF820400794ADF818006846FC
:104EF000FFF7F0F80127B8F1040FB0D0D9F8081087
:104F00000029ACD0504688470746A8E75046FFF72F
:104F100067FE18B150460021FFF7B6FED9F804002D
:104F200000289BD05046FFF755FE042896D0D9F8AC
:104F30000410504609B0BDE8F04F08475046022122
:104F4000FFF7A2FE012799F83000C0072FD19BF888
:104F5000030001287FF483AFB9F82E0000283FF446
:104F60007EAF01208BF80000CBF810A004F0F8FE13
:104F70000BF1140104F0FAFE00204FF4807105904B
:104F8000049135490391334901913449ADF81A0030
:104F90000291DBF810100091B9F82E10ADF818103E
:104FA0008DF8200007906846FFF794F857E799F8C6
:104FB00028008BF8020052E799F8300080071ED4D1
:104FC0005046FFF70DFEE0B1A8F1020002281FD302
:104FD000B8F1010F1FD922E0002C3FF401AF504679
:104FE0000021FFF751FE0127B8F1040FABD0D9F82B
:104FF00004100029A7D0504688470746A3E7012799
:1050000018E0A8F10200022805D3B8F1010F06D874
:105010005046002101E050460221FFF735FE0127EE
:10502000B8F1040F06D0D9F8041019B150468847DA
:10503000074630B199F8300000F0FD0089F83000E3
:105040000DE700270BE700BF280200206C765F62A7
:10505000746E0000F14B000815420008FD4B00087B
:105060002DE9F8430D46044662B1012A31D0022AE7
:1050700035D1E648294602228368204601B0BDE8C2
:10508000F0431847204606F0CBFD8046204606F048
:10509000BDFD074606F0C4FD0646384606F09CFDF9
:1050A0008146307FC00701D1307A48B9484604F0C4
:1050B000F4FDB84204D14846414604F0F5FD606273
:1050C000D24829460022836820469847C4F82480A5
:1050D00005E0CE48294601228368204698470120F2
:1050E00001B0BDE8F08300BFF8B50E46574904464D
:1050F00057A30020362206F02DF820463146FFF750
:105100009FFB88B3594F0446386818B9204606F00B
:1051100085FD3860786818B9204606F04AFD786049
:1051200020463C2106F08BFB28B305460020504961
:10513000C5E90D00204606F0AAFE4E49204606F0BD
:1051400043FEFEB1304606F045FD416B0646204663
:10515000FFF776FB68632046B16B04F067FFA86336
:10516000204606F01BFE63E03849FD4B03203A223F
:1051700005F0F0FFFEE73549F94B0320412205F029
:10518000E9FFFEE720460021FFF75AFB6863B96894
:1051900019B906F00EFDB860686B002106F00CFE30
:1051A0002046002104F042FFA86333A1204600F00E
:1051B000D7F82046062101F0C8FA20460121012235
:1051C00001F0A2FA20460121FFF787FD20461021B9
:1051D00006F057FE08F008FB00B3D0F8A820294FCE
:1051E000064620460021B847D6F8AC2020460121CB
:1051F000B847D6F8B02020460221B847D6F8B420E8
:1052000020460321B847D6F8B82020460421B847E5
:10521000D6F8BC2020460521B84709E01A4A2046A6
:10522000002100F061F8194A2046012100F05CF8E5
:10523000686B174906F0C8FD044916A301207122C6
:1052400005F088FF204601B0F0BD00BFE4870108EB
:10525000636865636B20626F782063726561746553
:1052600020737461727465640000000040020020C5
:1052700075530008A9520008436865636B20626F8C
:1052800078000000E952000864050020FC030020BB
:1052900061500008636865636B20626F78206372F9
:1052A0006561746564000000F8B515460C46064655
:1052B000022A0BD2304606F08DFC0746406B06F002
:1052C00089FC97F8281080F8281004E003D14F4893
:1052D0002146022202E04D4821462A4643683046D4
:1052E00001B0BDE8F040184770B514460E460546BB
:1052F00006F070FC052E88BF70BDDFE806F0031BCA
:105300001E212427154E284600212246B047284654
:1053100001212246B047284602212246B0472846AE
:1053200003212246B0472846042122463346BDE8E1
:1053300070401847406B00210AE0406B012107E0F4
:10534000406B022104E0406B032101E0406B04212B
:105350002246BDE87040FFF7ABBC00BFB14C00086F
:1053600010B50C4606F036FC806B2146BDE81040B7
:1053700005F024BB2DE9F0410546244816460F46AA
:10538000036828469847044601282FD1284606F08E
:1053900021FC8046F81E082814D8DFE800F0052715
:1053A000272A271E271E1E00D8F8380006F038FCD2
:1053B000406AD8F8341090F820200846114606F0CC
:1053C00068FD0AE0122F11D1307814280ED801217F
:1053D00001FA00F01049084208D0D8F83460284695
:1053E000FFF7F8FB01463046FFF74EFC2046BDE8CC
:1053F000F08100210846062904D856F82020411CD7
:10540000002AF7D102A146F82010EFE74002002061
:105410006C765F636200000000041E00F8B50D4664
:105420003E4904463EA300203E2205F093FE20465E
:10543000294606F013FA002849D01C21044606F03C
:10544000FEF900284AD00821064605F0C9FB3A4873
:105450004FF4C8013A4FC6E903107F20B0763748B1
:10546000C6F81600307D00F0F00001303075386865
:1054700018B9204606F09DFB3860786818B92046B8
:1054800006F0CCFB78602F49204606F000FD2E493F
:10549000204606F099FC45B3284606F09BFB017DAB
:1054A000327D01F00F0102F0F00211443175818963
:1054B000B181C189F181017C3174417C7174418A6F
:1054C0007182407E7076204606F068FC1CE013492D
:1054D000234B0320422205F03DFEFEE70F49204BFF
:1054E0000320472205F036FEFEE720466A215022BF
:1054F00006F0CFFC08F078F9002814BFD0F884102B
:105500001249204606F0FEFC044911A30120762230
:1055100005F020FE204601B0F0BD00BFFC87010869
:10552000636861727420637265617465207374616D
:10553000727465640000000003050A00020000FFA9
:105540004C020020455D000865550008FC03002062
:105550006368617274206372656174656400000041
:10556000E38501082DE9F04F9BB00546002A07911D
:105570000CD0022A40F08D82DFF82C080799022215
:10558000036828461BB0BDE8F04F1847284606F0D0
:1055900047FB0446284606F02CFB034605F11000A5
:1055A00022460490079901F04BFD284606F012FBB5
:1055B0000190284606F00EFB8146284606F030FB97
:1055C0000646284606F015FB8246284606F056FB9E
:1055D0000590284606F002FB99F8108001466F8A74
:1055E000288A06950D46B8F1000F03903DD0039927
:1055F0000598B4890844ADF83010002CADF82800A7
:105600000CBF08F101080124A34628E099F81030E6
:1056100002FB05F0A24203F1010390FBF3F03844D2
:10562000ADF8320006D1B6F9363000EB6300013038
:10563000ADF832008A4206D1B6F936106FEA610140
:105640000844ADF83200ADF82A00CDF800A00CA84F
:105650000AA93346079A01F0EFFB0BF1010B5FFA41
:1056600088F15FFA8BF28A42D0D999F81100F0B331
:105670002946B589ADF832700DF130080DF1280BCF
:105680003944ADF82A10002D0CBF01300125C7B2F6
:105690002C4629E0059899F81120A94201FB00F059
:1056A00002F1010290FBF2F0039A1044ADF83000D1
:1056B00006D1B6F9362000EB62000130ADF83000BB
:1056C000B94206D1B6F936106FEA61010844ADF867
:1056D0003000ADF82800CDF800A0404659463346CA
:1056E000079A01F0A9FB0134E1B2B942D2D901987D
:1056F000069C007DC10705D00799204600F0D0F92F
:105700000198007D810740F19A80204606F062FAF8
:105710000646204606F0B2FA0546204606F05EFA36
:10572000DE490746B6F8128096F818900CA807F0E4
:10573000B1FA4FF0000B0395ADF83CB0ADF836B0C0
:105740009DF84C0000F0FE008DF84C00707E8DF846
:105750003800E08AADF82E0009F1010000FB08F0E6
:1057600095FBF0F001B2022091FBF0F00591029060
:105770005FE003990BFB01F191FBF0F00299084403
:10578000049909880C18304605F025FA4CE04FF6CC
:10579000FF706FF30F0A28EA0008A888ADF83200FE
:1057A00082444046B27E514600F09AFBADF8340088
:1057B0000598ADF828400444ADF82C40E888718A7B
:1057C0005844B0FBF1F202FB11092968B6F90E202A
:1057D0004FEA0940C013085EB6F90C10401A511A7E
:1057E0000AAA784390FBF1F00699381A498A0844CE
:1057F0000799ADF82A0008A8FEF73EFD80B1296898
:105800000FFA89F031F81000B0F5404F08D0069833
:1058100006F0EFF90346049808A90CAA01F010FC61
:105820003046294605F0D1F905460028AFD10BF1E5
:10583000010B708A83459CD30198069C007D41072B
:1058400040F18880204606F0C5F90646204606F05D
:1058500015FA0590204606F0C1F98346208ADA49F8
:10586000B4F812A004900CA807F014FA0020ADF8C8
:105870003C009DF84C0000F0FE008DF84C00707E5E
:105880008DF83800F08AADF83600304605F0A3F9FF
:1058900005465AE0039B4FF6FF7002998343A888A0
:1058A0006FF30F010393ADF8320001441846B27E46
:1058B000029100F015FB4FF000084FF00009ADF821
:1058C00034003AE0411E049A98FBF1F11144BDF80E
:1058D00036208B18891AADF82C30ADF82810E988DD
:1058E000B6F90C70B6F90E404944B1FBF0F303FB76
:1058F000101029680004C0130B5EDB1BE71B03FBC1
:105900000BF393FBF7F3ABEB030353449F1A1A44D7
:10591000ADF82A70ADF82E20085AB0F5404F08D0E7
:10592000069806F066F9079903460AA80CAA01F042
:1059300087FB059809F101098044708A8145C1D32C
:105940003046294605F041F90546002DA2D10198BF
:10595000069C007D000740F19C80204606F03AF945
:105960008146204606F08AF9B9F812208242114693
:10597000049240F08A80204606F030F98246208A60
:105980000690608A0590204606F033F98E49039010
:105990000CA807F07FF999F819008DF86800B9F89C
:1059A0001600ADF86600484605F015F969E0B8F84C
:1059B0000400069B4FF0000B0025ADF82830ADF831
:1059C0006400ADF82030D8F80020B9F90C00B9F91E
:1059D0000E10B2F90020121A081A059902FB0AF2F9
:1059E00092FBF0F0AAEB00004718ADF82A70ADF872
:1059F0002270B9F812C03CE0D8F80040B9F90C6048
:105A0000B9F90E00BFB234F91510801B891B01FBD8
:105A10000AF191FBF0F00599AAEB0000014488B26D
:105A2000ADF82210874204BF581CADF8200034F8AE
:105A30001500B0F5404F01D10F460CE0039808A9BE
:105A40000CAB00900AA8079A01F0F6F9B9F81220F9
:105A5000BDF822709446501E0699ADF82A700135A3
:105A60009BFBF0F00B180498ADF82830ADF820300F
:105A700083441FFA8CF29542BED34846414605F056
:105A8000A4F88046002892D103E00799204600F050
:105A900007F801201BB0BDE8F08F00BFB80100205F
:105AA0002DE9F04F97B00391044606F093F80546B0
:105AB000204606F0E3F80590204606F08FF80746EA
:105AC000B4F810B0668A204606F093F83E4902907A
:105AD00006A807F0DFF8687E049706EB07098DF843
